:020000040800F2
:10000000805500249D3E000849490108713E0008C2
:10001000713E0008713E0008713E000800000000BB
:10002000000000000000000000000000F93A000895
:10003000713E000800000000A13A000825030108F5
:10004000A53B0008A53B0008A53B0008A53B000810
:10005000A53B0008A53B0008A53B0008A53B000800
:10006000A53B0008A53B0008A53B0008A53B0008F0
:10007000A53B0008A53B0008A53B0008A53B0008E0
:1002980080F0004002E000BF81F0004142001FBF33
:1002A8005FEA410392EA030F7FEA226C7FEA236C3C
:1002B8006AD04FEA1262D2EB1363C1BFD218414031
:1002C80048404140B8BF5B42192B88BF704710F0C7
:1002D800004F40F4000020F07F4018BF404211F06A
:1002E800004F41F4000121F07F4118BF494292EAD2
:1002F800030F3FD0A2F1010241FA03FC10EB0C00FE
:10030800C3F1200301FA03F100F0004302D549428A
:1003180060EB4000B0F5000F13D3B0F1807F06D337
:1003280040084FEA310102F10102FE2A51D2B1F12F
:10033800004F40EBC25008BF20F0010040EA030024
:100348007047490040EB0000013A28BFB0F5000FA4
:10035800EDD2B0FA80FCACF1080CB2EB0C0200FA5A
:100368000CF0AABF00EBC25052421843BCBFD040A9
:100378001843704792F0000F81F4000106BF80F423
:1003880000000132013BB5E74FEA41037FEA226CE6
:1003980018BF7FEA236C21D092EA030F04D092F0B1
:1003A800000F08BF0846704790EA010F1CBF0020E5
:1003B800704712F07F4F04D1400028BF40F0004042
:1003C800704712F100723CBF00F50000704700F062
:1003D800004343F0FE4040F4000070477FEA226289
:1003E80016BF08467FEA23630146420206BF5FEA5A
:1003F800412390EA010F40F4800070474FF000035A
:1004080004E000BF10F0004348BF40425FEA000C20
:1004180008BF704743F0964301464FF000001CE0C8
:1004280050EA010208BF70474FF000030AE000BF1E
:1004380050EA010208BF704711F0004302D540425C
:1004480061EB41015FEA010C02BF844601460020CE
:1004580043F0B64308BFA3F18053A3F50003BCFAE9
:100468008CF2083AA3EBC25310DB01FA02FC634496
:1004780000FA02FCC2F12002BCF1004F20FA02F29D
:1004880043EB020008BF20F00100704702F1200290
:1004980001FA02FCC2F1200250EA4C0021FA02F2F1
:1004A80043EB020008BF20EADC7070474FF0FF0CF6
:1004B8001CEAD0521EBF1CEAD15392EA0C0F93EAF1
:1004C8000C0F6FD01A4480EA010C400218BF5FEA93
:1004D80041211ED04FF0006343EA501043EA511106
:1004E800A0FB01310CF00040B1F5000F3EBF490000
:1004F80041EAD3715B0040EA010062F17F02FD2A04
:100508001DD8B3F1004F40EBC25008BF20F00100E6
:10051800704790F0000F0CF0004C08BF49024CEAFD
:10052800502040EA51207F3AC2BFD2F1FF0340EA8F
:10053800C250704740F400004FF00003013A5DDC00
:1005480012F1190FDCBF00F000407047C2F1000241
:10055800410021FA02F1C2F1200200FA02FC5FEA2E
:10056800310040F1000053EA4C0308BF20EADC7078
:10057800704792F0000F00F0004C02BF400010F4EA
:10058800000F013AF9D040EA0C0093F0000F01F097
:10059800004C02BF490011F4000F013BF9D041EAB9
:1005A8000C018FE70CEAD15392EA0C0F18BF93EABB
:1005B8000C0F0AD030F0004C18BF31F0004CD8D1E5
:1005C80080EA010000F00040704790F0000F17BF6C
:1005D80090F0004F084691F0000F91F0004F14D0B2
:1005E80092EA0C0F01D142020FD193EA0C0F03D10A
:1005F8004B0218BF084608D180EA010000F000400D
:1006080040F0FE4040F40000704740F0FE4040F4E7
:10061800400070474FF0FF0C1CEAD0521EBF1CEA86
:10062800D15392EA0C0F93EA0C0F69D0A2EB0302A4
:1006380080EA010C49024FEA402037D04FF080533E
:1006480043EA111143EA10130CF000408B4238BF03
:100658005B0042F17D024FF4000C8B4224BF5B1A11
:1006680040EA0C00B3EB510F24BFA3EB510340EA5F
:100678005C00B3EB910F24BFA3EB910340EA9C000D
:10068800B3EBD10F24BFA3EBD10340EADC001B017D
:1006980018BF5FEA1C1CE0D1FD2A3FF650AF8B4221
:1006A80040EBC25008BF20F0010070470CF0004C2E
:1006B8004CEA50207F32C2BFD2F1FF0340EAC25059
:1006C800704740F400004FF00003013A37E792F01A
:1006D800000F00F0004C02BF400010F4000F013A78
:1006E800F9D040EA0C0093F0000F01F0004C02BF73
:1006F800490011F4000F013BF9D041EA0C0195E7DC
:100708000CEAD15392EA0C0F08D142027FF47DAF74
:1007180093EA0C0F7FF470AF084676E793EA0C0F64
:1007280004D14B023FF44CAF08466EE730F0004C62
:1007380018BF31F0004CCAD130F000427FF45CAFF2
:1007480031F000437FF43CAF5FE700BF42000ED2B8
:10075800B2F1FE4F0BD34FF09E03B3EB126209D4F4
:100768004FEA002343F0004323FA02F070474FF0AA
:100778000000704712F1610F01D1420202D14FF01F
:10078800FF3070474FF00000704700BF7BB972B967
:100798000029BEBF00204FF0004106E008BF002836
:1007A8001CBF6FF000414FF0FF3000F0BFB9ADF152
:1007B800080C6DE904CE002909DB002B1ADB00F0D8
:1007C8004DF8DDF804E0DDE9022304B0704740424B
:1007D80061EB4101002B1BDB00F040F8DDF804E081
:1007E800DDE9022304B0404261EB4101524263EB70
:1007F80043037047524263EB430300F02FF8DDF8E0
:1008080004E0DDE9022304B0404261EB4101704796
:10081800524263EB430300F021F8DDF804E0DDE920
:10082800022304B0524263EB4303704753B94AB9F9
:10083800002908BF00281CBF4FF0FF314FF0FF30E0
:1008480000F074B9ADF1080C6DE904CE00F006F8BB
:10085800DDF804E0DDE9022304B070472DE9F04734
:10086800089E0D4604468846002B4DD18A42944680
:1008780068D9B2FA82F252B101FA02F3C2F1200148
:1008880020FA01F10CFA02FC41EA030894404FEA0D
:100898001C45210CB8FBF5FE1FFA8CF705FB1E83DF
:1008A80041EA03430EFB07F199420BD91CEB030302
:1008B8000EF1FF3080F01E81994240F21B81AEF1AB
:1008C800020E63445B1AA4B2B3FBF5F005FB1033C8
:1008D80044EA034400FB07F7A7420AD91CEB0404C7
:1008E80000F1FF3380F00881A74240F2058164449B
:1008F8000238E41B40EA0E4000211EB1D440002318
:10090800C6E90043BDE8F0878B4208D9002E00F005
:10091800EE800021C6E900050846BDE8F087B3FA75
:1009280083F100294AD1AB4202D3824200F2F98016
:10093800841A65EB030301209846002EE2D0C6E92D
:100948000048DFE702B9FFDEB2FA82F2002A40F07F
:100958009180A1EB0C054FEA1C471FFA8CFE012180
:10096800B5FBF7F307FB1350250C45EA00450EFBD2
:1009780003F0A84208D91CEB050503F1FF3802D2A1
:10098800A84200F2CB8043462D1AA4B2B5FBF7F07B
:1009980007FB105544EA05440EFB00FEA64508D99E
:1009A8001CEB040400F1FF3502D2A64500F2BB801F
:1009B8002846A4EB0E0440EA03409EE7C1F1200755
:1009C8008B4022FA07FC4CEA030C20FA07F405FADC
:1009D80001F31C43FD404FEA1C4900FA01F3B5FB43
:1009E800F9F8200C1FFA8CFE09FB185540EA05455A
:1009F80008FB0EF0A84202FA01F20BD91CEB050520
:100A080008F1FF3A80F08880A84240F28580A8F17A
:100A1800020865442D1AA4B2B5FBF9F009FB10557C
:100A280044EA054500FB0EFEAE4508D91CEB05055A
:100A380000F1FF346CD2AE456AD90238654440EA09
:100A48000840A0FB0294A5EB0E05A542C846A646A1
:100A580056D353D05EB1B3EB080265EB0E0505FA29
:100A680007F722FA01F3CD401F43C6E900750021BC
:100A7800BDE8F087C2F1200320FA03F10CFA02FC6A
:100A880025FA03F395400D434FEA1C471FFA8CFEE5
:100A9800B3FBF7F107FB11302B0C43EA004301FBD2
:100AA8000EF0984204FA02F408D91CEB030301F192
:100AB800FF382FD298422DD9023963441B1AADB2A0
:100AC800B3FBF7F007FB103345EA034500FB0EF3D1
:100AD800AB4208D91CEB050500F1FF3816D2AB4232
:100AE80014D902386544ED1A40EA014138E7314625
:100AF800304607E78646E5E61846FAE64B45A9D2AA
:100B0800B9EB020864EB0C0E0138A3E74046EAE7AC
:100B1800204694E74146D1E7D0467BE7023B65444F
:100B280032E7084609E76444023842E7704700BFE5
:100B38001FB504F0EFFA124B044612484360124BFB
:100B4800836005F0B3FE204617F015F80F496A4692
:100B5800022015F033FB034670B90322694620468C
:100B680004F0DEFC0A496A46022015F027FB18B992
:100B78006946204604F0CAFF002004B010BD00BF3B
:100B8800B72F0108381D0024010004E0EEFF01081A
:100B98008EDB01082DE9F04107460E46154600F0A8
:100BA8008FF8C36804461BB943691A78002A3FD1F5
:100BB8000023E3606368BB4256F8232008DB324B0E
:100BC8006361204600F062F84FF0FF30BDE8F08125
:100BD800511C616192F80080B8F12D0FEFD1911C82
:100BE800616151782D29A16004D192786AB90133E5
:100BF8006360E4E749B9244B41462846636113F032
:100C0800CFFF0028DDD0C4F80880A168284613F07B
:100C1800C7FFA3683A2B636900D070B91B7813B972
:100C2800636801336360204600F030F83F20CDE769
:100C38005A1C42611B788360E7E742783A2A0BD056
:100C4800002222611B7813B9636801336360204670
:100C580000F01CF8A068B9E719780B4A11B12361B4
:100C68006261F1E7636801339F42636002DD56F811
:100C78002330F4E7626120462D783A2DD4D100F074
:100C880005F82846A2E700BFEEFF01080268074BF7
:100C98001A604268064B1A608268064B1A60C2687E
:100CA800054B1A600269054B1A6070475808002402
:100CB8005C080024481D00244C1D0024441D002409
:100CC8000048704740080024014B1B68184700BFC4
:100CD80060080024014B1860704700BF60080024BA
:100CE80007B50B46002102460348009100F01CF8A6
:100CF80003B05DF804FB00BFD10C000830B5002537
:100D080087B0044600950595CDE9030103A9054878
:100D180000F00AF8DDE904309842B8BF255407B05E
:100D280030BD00BF5B3001082DE9F04F8B4691B014
:100D380092461C46002502909AF8000008B92846F9
:100D480064E325280AF1010707D05946029B984712
:100D58000028C0F25B83013512E2182200210AA89C
:100D680013F090FF9AF80130252B78D00022104616
:100D7800964694461646394617F8013B2B2B00F049
:100D88009D8000F29480202B00F09B80232B00F0A4
:100D98009B802EB19DF8306046F004068DF83060D7
:100DA800BCF1000F05D09DF8306046F008068DF8BC
:100DB8003060BEF1000F05D09DF8306046F0100697
:100DC8008DF8306028B19DF8300040F020008DF893
:100DD80030002AB19DF8302042F040028DF83020D2
:100DE8009DF8302002F04400442803D16FF38612A6
:100DF8008DF830209DF830202A2B42F080028DF8A3
:100E080030207BD19DF831204B1C42F001028DF837
:100E180031201A782E2A9DF831200CBF012100219B
:100E280061F341028DF8312074D15A782A2A6AD0A8
:100E3800013300210A26184610F8012BA2F13007C9
:100E4800092F40F28E809DF830200E91C2F34000A9
:100E580040EAD17161F341028DF830205AE00AF17D
:100E680002078DF833309DF83130D90740F14981B8
:100E780054F8049BB9F1000F07DA9DF83020C9F146
:100E8800000942F004028DF830205A0740F14281EF
:100E980054F8048BB8F1000F80F241819DF831308D
:100EA8006FF341038DF831304FF0FF3837E12D2BC8
:100EB8000CD0302B7FF46DAF01225CE74FF0010CB2
:100EC80059E74FF0010E56E7012054E7012652E793
:100ED8000CFB02023346303A1E4616F8010BA0F10D
:100EE8003007092FF4D9994293D09DF830100D920C
:100EF800D20F62F341018DF830108AE70B460022C9
:100F08004FF00A0CE8E79DF83120023342F0040262
:100F18008DF831201F4617F8012B6C2A41D025D8AF
:100F2800682A2BD06A2A46D04C2A4CD01F4617F87C
:100F3800012B9DF83130782A8DF8332000F2D980C2
:100F4800572A4DD8412A03D0453A022A00F2D180C7
:100F58009DF83230042262F302038DF83230012307
:100F68009EE006FB01210346303964E7742A26D047
:100F78007A2ADBD19DF8313006220DE05A78682AAA
:100F88009DF8312006D1012161F3C6029F1C8DF81E
:100F98003120CCE71346022262F3C6038DF83130C4
:100FA800C5E75A786C2A9DF8312001D10421EBE776
:100FB80013460322F0E79DF831300522ECE79DF84F
:100FC80031300722E8E7BDF8303023F4F04323F04E
:100FD800020343F4804343F00203ADF83030A6E740
:100FE800A2F15801202900F2848001A050F821F0D4
:100FF800BD100008FB100008FB100008FB100008DB
:10100800FB100008FB100008FB100008FB1000088C
:10101800FB100008590F0008FB100008BD1000085D
:101028007D100008590F0008590F0008590F0008D3
:10103800FB1000087D100008FB100008FB100008DA
:10104800FB100008FB100008C5100008BD100008C0
:10105800E1100008FB100008FB100008E110000870
:10106800FB100008BD100008FB100008FB1000086A
:10107800BD1000089DF83210012003F0780360F3DA
:101088000201402B8DF8321002BF9DF8301041F05C
:1010980001018DF83010632A31D1003B18BF0123BC
:1010A8009DF83020C2F340010B4363F341028DF8F1
:1010B8003020D8E69DF832100220DEE703F07803EE
:1010C8009DF832200321A3F1400061F3020243425C
:1010D8008DF832204341E3E79DF83220032113F0D5
:1010E800780F61F3020214BF012300238DF8322028
:1010F800D6E79DF8303043F001038DF830300023F7
:10110800CEE79DF93020002AB4BFDDF834904FF0C7
:10111800FF39BAE69B077FF5C7AEDDF838800023B4
:101128009DF83110CDE90D339DF83230C1F3C3017C
:1011380003F00703012B35D1CB1E042B22D8DFE89F
:1011480003F003090921210054F8043BDA17CDE91B
:101158000A3206E0073424F00704F4E80223CDE954
:101168000A239DF8303013F0030659D03B46524607
:101178005946029812F0B2FA0028C0F24781054495
:10118800BA46D9E554F8043B01294FEAE372CDE9A0
:101198000A3202D19DF92830D8E70229E1D1BDF9F8
:1011A8002830D3E7022B29D1CB1E042B13D8DFE834
:1011B80003F0030A0A12120022680023201D0A9273
:1011C8000B930446CDE7E01D20F00700F0E802236A
:1011D800CDE90A23F5E754F8043B01290A934FF0B7
:1011E80000030B9305D19DF828300A9300230B9335
:1011F800B7E70229B5D1BDF82830F6E7042B09D1A5
:10120800E31D23F0070303F10804D3E90023CDE924
:101218000A23A6E7032B04BF54F8043B0A93A0E76C
:101228009DF833007828ABD8622822D825283FF4C7
:101238008CAD5828A4D10DF126030CAA009304AB59
:10124800DDE90A0112F004FA8246B8F1000F0DF147
:1012580026000CDB9DF83020A0EB0A036FF3861202
:1012680098458DF8302002D9A8EB03030D938046EA
:101278003EE06338152883D801A252F820F000BF59
:10128800091300086D130008891100088911000866
:1012980089110008891100086D13000889110008D8
:1012A800891100088911000889110008C91300086C
:1012B800971300089B13000889110008891100087A
:1012C800E112000889110008971300088911000825
:1012D8008911000897130008B8F1000FDDF828A05D
:1012E8000ADB4146504613F0F5FC0AEB00080026DD
:1012F800BAF1000F0CD143E7504613F06BFCF4E74A
:101308000A9B00260DF1100A0DF111088DF8103016
:10131800A8EB0A0306B101339DF83220D00669D53F
:10132800023352060D9948BF0E9A0B4448BF9B18CA
:10133800B9F1000F77DD9DF83020A9EB0309C2F35E
:101348008003039353076ED4500662D546B15946BD
:101358003046029B9847002858DB039B01351E4600
:10136800302357E01E0710D413F0100618BF2026AC
:10137800DDE90A23002BBFF65EAF52424FF02D067F
:1013880063EB4303CDE90A2355E72B26F0E7002654
:1013980051E70A9840B30DF126030CAA0021002654
:1013A800009304AB12F054F9BDF83230824603F0D2
:1013B800EF0343F4F04343F01003ADF8323044E751
:1013C8000A9B07293FF6DCAEDFE801F00C04060CA7
:1013D80008080C0C1D70D3E61D80D1E6EA17C3E996
:1013E8000052CDE61D60CBE6DFF8C4A006460AF140
:1013F80005088DE7110748BF013392E718460393A4
:101408005946029B98470028039B04DA11B0BDE8AF
:10141800F08F20234D444A46A5EB090109F1FF3915
:10142800002AEBDC0D4636B159463046029B9847F8
:101438000028EBDB01359DF83230D90601D41A07B4
:1014480006D559463020029B98470028DEDB013537
:101458009DF83230DB0607D559469DF83300029BCC
:1014680098470028D2DB01350D9E2E44731B002BB4
:1014780016DC434652465946029812F02FF90028C6
:10148800C4DB0544A944A9EB0503002B7FF778AE1C
:1014980059462020029B98470028B7DB0135F2E720
:1014A80059463020029B98470028AFDB0135DDE71D
:1014B800C0DB0108F0B54FF01003EFF3118083F3A0
:1014C8001288BFF36F8F344B5A6912F4003211D16E
:1014D800BFF34F8FBFF36F8FC3F85022BFF34F8F07
:1014E800BFF36F8F5A6942F400325A61BFF34F8FCE
:1014F800BFF36F8F284A5369D90327D4536913F46C
:10150800803323D1C2F88430BFF34F8FD2F88030B4
:1015180043F6E075C3F3C904C3F34E335B0103EA32
:101528000507214647EA81760139C2F86062F9D297
:10153800203B13F1200FF2D1BFF34F8F536943F4CF
:1015480080335361BFF34F8FBFF36F8F80F31188E0
:10155800BFF36F8F114B124A1A60124BDA6822F0F0
:10156800070242F00202DA609A6942F440429A6144
:101578009A699204FCD50C4B1A6841F20303B3EB49
:10158800124F06D1094AD2F8083143F00103C2F8D4
:1015980008310020F0BD00BF00ED00E00C10002471
:1015A8000090D003004802580010005C00800051F1
:1015B80013B504461AF01EF9C0F30723064A08219A
:1015C8000193C0F307430093030E204612F012FB69
:1015D800002002B010BD00BFF3DB010810B50446BF
:1015E8001AF00EFC0A220023FFF720F9034A0346EB
:1015F8000821204612F0FEFA002010BD0CDC01087C
:1016080010B504460EF01CFF084A03460821204680
:1016180012F0F0FA064A2046082112F0EBFA2146A9
:10162800044810F0DBF9002010BD00BF1BDC0108E6
:101638003ADC010841160008F0B58FB004460D46A3
:10164800D0F8A0701AF0C1F8064611F0D1F9244B71
:10165800244A0821002E08BF1E46234BCDE9004628
:10166800844218BF13462846204A12F0C3FA284677
:101678000821D4E90A23CDE9022394F90E301C4A43
:101688000093237B12F0B6FA06A92022204610F018
:10169800EDF9626E0346082100922846154A12F0B9
:1016A800A9FA05A920461AF0A0F8034630B1124A53
:1016B8000821284612F09EFA0FB0F0BD059A64235F
:1016C8002846B91A4B43B3FBF7F3CDE90021CDE91E
:1016D80002730A4A3B46082112F08CFAECE700BF75
:1016E80046DC0108CD04020844DC010849DC010895
:1016F80055DC010881DC010898DC0108C5DC01081B
:1017080030B593B000211C2204460BA80A9113F0AF
:10171800B9FA1B4813F05EFAC0F1200001282CD951
:10172800174813F057FAC0F120020AAD20212846C5
:1017380013F0A8FA2146134810F050F909AA4FF4FB
:10174800006111481AF045F8099A64230195C2F519
:101758000061002520464B430095DB0A06934FF4B1
:101768000063CDE90413CDE902320821074B084A8A
:1017780012F040FA284613B030BD0122D5E700BF69
:10178800FCDC0108F91700088057002440570024A2
:1017980003DD010810B504460EF070FE034A034647
:1017A8000821204612F026FA002010BD4CDD010861
:1017B80037B51346002205460A21019201AA586846
:1017C80012F07BFC019C4CB920EAE0700A2180FBF6
:1017D800010111F0F5F8204603B030BD2346034A55
:1017E8000121284612F006FA019CF4E762DD01089F
:1017F800F0B5044689B00D46D0F8A06007A919F0E5
:10180800F4FF034630B1104A0821284612F0F2F9D5
:1018180009B0F0BD204619F0D8FF079964230B4A98
:10182800771A002818BF024628467B43B3FBF6F315
:10183800CDE90217CDE90463CDE900262346044A21
:10184800082112F0D7F9E3E798DC010846DC010823
:1018580082DD010838B5046803460D680CB12278AA
:101868002AB94C68064A8968204602F037FC28469F
:101878002346044A082112F0BDF9002038BD00BFF4
:1018880064DE010869DE01082DE9F0478AB00546E3
:10189800DFF8808001A8DFF880900FF035FF18236B
:1018A800019E08211D4A03FB0066284612F0A2F992
:1018B800DFF86CA0019CB44203D300200AB0BDE855
:1018C800F087236805AF0BB11A7832B92346424630
:1018D8001421384602F002FC3B464A4608212846B5
:1018E80012F088F9204619F06AFE0E4B0E4A0821BC
:1018F800002818BF5346284612F07CF914232046C6
:1019080002AA0A4918340493CDE9025719F062FE75
:10191800D1E700BF64DE010892DE010888DE010815
:1019280079DE01087FDE010875FE01085D180008F0
:101938008B1E022B2DE9F04107468846144633D802
:1019480010220021606813F076F8B8F1020F0646FD
:101958001ED00A220021A06813F06DF8C5B22B46EC
:10196800204A0821384612F045F9B8F1040F1ED074
:10197800102D0FD0202D10D0082D10D13378DBB2C8
:10198800194A0821384612F035F90020BDE8F081DF
:101998002025E4E733889BB2F2E73368F0E7134A7F
:1019A8000821384612F026F96FF01500EEE71022EC
:1019B8000021E06813F03FF80D4A03460446082169
:1019C800384612F017F9102D06D0202D07D0082D13
:1019D800E5D1E4B23470D8E7A4B23480D5E73460F6
:1019E800D3E700BFCBDE0108F6DE0108E0DE010820
:1019F80007DF010870B50E4E04460D46337831B145
:101A08002BB10C4A0121BDE8704012F0F3B883F005
:101A18000103337033B1084A0821204612F0EAF86E
:101A28000123337029462046BDE8704012F034B9CE
:101A3800263000241BDF010856DF010870B5044674
:101A48003C480378182B02D10B78112B31D0013A7E
:101A58000B4655189D4225D18B5C0A780370A2F17C
:101A68003003354C092B04D922F02003413B052BC8
:101A780004D823683149CA54013323602368022BF0
:101A880034D1102200212D4812F0D5FF2C4A1368BA
:101A980003F8010B13602B4A13680133136000230A
:101AA800236023E013F8016B182ED3D11E78112E72
:101AB800D0D1244D0821244A20462B6812F09AF8E8
:101AC80020460021FFF796FF204B187870B9204A6E
:101AD8002B681168042B0ADC08B111602B6013F025
:101AE80003010BD1126813681BBA136070BD086834
:101AF800043B00BA41F8040B0120EBE75B4203F01A
:101B0800030358BF5942022904D1126813885BBAEB
:101B18009BB2EAE70329E9D1106802681104C2F30D
:101B2800074302F47F4201F47F010B431343036030
:101B3800DCE700BF28300024541D00242430002492
:101B4800501D00245C1D002480DF0108273000247C
:101B5800581D00242DE9F74F00230D462C49064651
:101B6800DFF8B08014460B60DFF8AC902B49DFF843
:101B7800B0B088F800300B60012D274654F8043FB8
:101B880021D9184602224946019313F036F8019BE1
:101B980088B922689278003A18BF012203EB020A3A
:101BA80020490222504613F028F830B9012388F85A
:101BB8000030013DE0E70022F0E74946504613F0C7
:101BC80010F8B0B9043700227868114612F0BFFE49
:101BD8000022154B11461860786812F0B8FE134BB6
:101BE800134918603046FFF705FF002003B0BDE831
:101BF800F08F9AF800202D2AE5D19AF80120002AC2
:101C0800E1D053465A460821304611F0F3FFD0E799
:101C1800541D0024273000249ADF01085C1D00248D
:101C2800A0DF01089DDF0108501D0024581D002475
:101C3800451A00082DE9F04F4FF0FF359246544BF6
:101C4800012285B00746894620262C46DFF844B194
:101C5800DFF844811A6051465A464846FEF79AFF13
:101C6800411C07D16A1C47D14C4A0121384611F062
:101C7800C1FF1AE073281BD077282BD0612814D114
:101C880010220021D8F8000012F0D5FE05460028E1
:101C9800E1D10FF045FD0368162BDCD1D8F80030F0
:101CA8003F4A0121384611F0A5FF6FF015006BE09F
:101CB8000022D8F80000114612F0BDFE04460028A4
:101CC800C9D10FF02DFD0368162BC4D1D8F8003008
:101CD800344AE6E70022D8F80000114612F0ABFEBD
:101CE80006460028B7D10FF01BFD0368162BB2D1AA
:101CF800D8F800302C4AD4E7631C01D12B4AB4E74A
:101D08005FFA86F8C6F3C406002C3CD06B46294619
:101D1800A6EB050C1A460CE0B8F1100F1DD0B8F16F
:101D2800200F20D0B8F1080F2AD108781870314454
:101D38003344A64203D80CEB01001028ECD9102C30
:101D4800A1462946384628BF4FF0100910354B46A2
:101D5800A4EB090401F030F9D6E7088880B21870BE
:101D6800000A5870E3E708684FEA102E187083F8E5
:101D780001E04FEA104E000E83F802E0D870D6E773
:101D88000B4A082172E7204605B0BDE8F08F00BF76
:101D98005C080024EFDF0108441D0024F6DF010879
:101DA800B5DF0108C8DF0108DBDF010813E001081F
:101DB800E0DE010813B5094819F001FC58B1002408
:101DC800074A0123054912680648009400F0DAFF23
:101DD800204602B010BD6FF01200FAE7B4C3010844
:101DE800A4CC010870CA010810B5144642681068EE
:101DF800016011684C6011688B601368D1681C68B9
:101E08000023C1E902334B600B61C1E90533116955
:101E1800C1E902334B600B61C1E905331168CB603E
:101E2800A36823B19B6C13B1044920469847A36863
:101E38009B6A0BB120469847002010BD3B3901082A
:101E4800034B1B68002B0CBF6FF01200002070477B
:101E580094200024034B1B68002B0CBF6FF012006A
:101E6800002070479420002407B5054A002101236B
:101E780004481268009100F085FF03B05DF804FB88
:101E8800E8CC010844CA010837B50446CBB9104D5F
:101E98002B68DB6DABB90F4900220093002304F0D7
:101EA80045FF014668B9B4F8743023F40073A4F808
:101EB80074302B685868DC6503B0BDE8304011F019
:101EC800D7BE204603B0BDE8304004F007BF00BFCE
:101ED800942000240122000873B5044615460846DC
:101EE8001E4606222346012104F03CFE90B92946ED
:101EF8003246206814F0C5FC014658B9206814F031
:101F08009FFD38B90090002200230649206815F08B
:101F180028F828B1206818B104F0E0FE00232360F7
:101F280002B070BD911E000870B5184C86B04068AC
:101F380016460021D8221D46206012F0A3FE236811
:101F48006A4601211E60236811485D600025114B17
:101F5800CDE900350823FFF7BFFF0F4B29461422B0
:101F680001A8009312F08EFE18236A4602210B483E
:101F7800FFF7B2FF2068603019F0CBFC20680849F1
:101F8800783019F0BBFD284606B070BD94200024B7
:101F98008C20002401000017020000179020002464
:101FA800173A01082DE9F041DFF86C800F46144616
:101FB8001D46D8F8000060B3C36D3BB3603019F01C
:101FC800D8FC064610B315F09FFB844202463946FA
:101FD80038BF2246304634BF002401242A6015F059
:101FE80029FB00280EDA00232B60D8F800006030A7
:101FF800002200230FF0CCFF304615F06EF90020C8
:10200800BDE8F081002CF0D12046F9E700202860D7
:10201800F6E76FF01200F3E79420002410B50D4C9A
:102028002368D86D04F05AFE2068002300F1A80147
:10203800783040F81C3C80F8583019F081FD206851
:102048006030002200230FF0A3FF00B910BD15F087
:1020580044F9F4E7942000242DE97F43124E3168B7
:10206800B1F85820D2B1C86DD0B100254FF0FF3873
:102078004FF0FF390D4B08310295CDE9008914F076
:10208800A1FF041E05DAFFF7C9FF204604B0BDE82A
:10209800708333682C46A3F85850F6E71446F4E7E3
:1020A8006FF07F04F1E700BF942000241B3A010879
:1020B8002DE9F74FDFF8FC901E4690460191D9F8BC
:1020C80000302BB96FF01200336003B0BDE8F08F19
:1020D800DA6D12B193F8D0501DB1C6F80080002017
:1020E800F3E73560D9F8007007F1880019F074FE3D
:1020F8004FF0FF33093045F10001834275EB0103CE
:1021080030D30A24B0FBF4F4D9F8000007F1080B27
:1021180000F1A801783019F013FD0090B7F85800C5
:10212800316808EB00035B1A502B019B8CBFC0F190
:10213800500AA8EB010A58441944524612F097FD78
:10214800B7F8583053449BB2F918A7F85830C979F2
:102158000A2901D0502B0CD1FFF77EFF48B1C6F8F1
:102168000080B2E70A220023FEF760FB04460D4612
:10217800CAE733680AEB030290453260CED8B7F855
:1021880058307BB1009B0A21D9F80000002B00F1E0
:10219800780004BF64240025A4FB012301FB053358
:1021A80010F038F9D9F800300120D3E90021904720
:1021B80095E700BF94200024DFB50D4B04460A467E
:1021C8001B68D86D90B100234FF0FF364FF0FF37F2
:1021D80021460293074BCDE9006714F0F3FE00286F
:1021E80004DA04B0BDE8D040FFF718BF04B0D0BD92
:1021F800942000241B3A01082DE9F341089E074664
:102208000C4601B126B102B0BDE8F041FFF706BFA8
:102218000846DFF8C88015F077FA014605463846C3
:102228002F4F14F02BFF012D0FD8002D50D02B4D20
:1022380021462868603019F078FB2B680020D3E924
:10224800002102B0BDE8F04110470223694620464C
:102258000096019315F064FB05460028E7D0037843
:10226800FF2BE4D14378F62B22D0FD2B28D0F52B79
:102278000BD1D8F80000012300F1A80180F8D03074
:10228800A0F85860783019F05BFC6B78FA2B1FD0F7
:1022980005332046DBB2032B8CBF0221032115F046
:1022A80012F9002814DB204615F02EFA0546BAE785
:1022B800384612F08FFC81B23846FFF77DFFE4E71D
:1022C80083780321032B0CBFFB23FC234370F4E723
:1022D800204602B0BDE8F04114F0FFBF942000246E
:1022E80095E1010810B581680446083101F0F4F859
:1022F800A1682046024A0831BDE8104001F08AB8BA
:10230800AEE10108014911F0CCBB00BFFADC0108BD
:1023180037B5044680680D46D0F864325A0705D5AB
:10232800002111F007FCE06812F014FAE368DB689A
:1023380073B9002D39D0A068423011F0ACFBA36806
:10234800002834D003F1420103F5A17012F00CFC0F
:10235800A2680DF106032946E068423212F0FDF941
:1023680058B9A06800F5A171423012F0FDFBA068D1
:10237800423011F090FBADF80600204611F097FFAF
:10238800A368D3F860329B0603D50A49606911F047
:1023980088FB204600F00AFFA268BDF806302046F8
:1023A800D387A268938711F0EFFE03B030BD83F89E
:1023B8004201CDE7ECCA01082DE9F04FA7B0044669
:1023C8005422002111A812F05DFC00232046CDE91B
:1023D8000533A3684233039311F06FFF204611F0D1
:1023E800BAFE10B96069FFF78DFFA06814220021BA
:1023F800002608304FF0FF3712F044FC204611F059
:102408002AFEA168E068B2468A8FB34642310DF1D0
:1024180044083546B14612F0D7F9204612F056FA6C
:102428000296DDE90532012A00F0DD80132B40F227
:10243800AC80069B022B40F0AB808A4B01218A4A74
:1024480015E00223039A414606A811F097FCD8F834
:10245800042006990346039229B96FF00705284618
:1024680027B0BDE8F08F012905D120B17F4A204669
:1024780011F0D1FFF1E7059B5BB3D8F8000001F03C
:102488004FF898B166B1A5680D9608350CAE0FCE19
:102498000FC533682B6020460125FFF723FFDEE7D1
:1024A800734A0121204611F0B6FFD6E7059B83B198
:1024B800D8F800202946204601F0DCF9022800F06F
:1024C8009280032805D0059B0133059301230293CD
:1024D800A7E7BBF1000F06D107AAD8F800104846B5
:1024E80011F038FD054608F10408013F002D3AD0E7
:1024F800029AEB6842B1F3B1204611F0DEFE2046A5
:1025080011F042FE5B4ACCE7ABB1A368AE46DDF8FA
:1025180014A003F1080CBEE80F00ACE80F00DEF8C9
:102528000030CCF80030AB682BB96B7CFE2B04BFB5
:102538002F7C07F1FF37D5F804C0BCF1000F08D095
:10254800AE460CAEBEE80F000FC6DEF800303360B2
:102558006646A9461FB9069B022B7FF462AF059B0E
:10256800013305935DE7059B63B9A368DB690BB18C
:10257800DB683BB9404B0121404A20460093119B40
:1025880011F049FF4FF0010BE4E7002F7FF459AF3A
:10259800029B53B1204612F0BAF9A268142311A97C
:1025A80042320DEB030011F0E9FBB9F1000F0CD03A
:1025B80099F81130FE2B08D1059B26AA02EB83025D
:1025C80052F8542C0AB101330593A068436973B9D2
:1025D800002E3FF442AFC368B3423FF45CAF00F152
:1025E80008050D9652E7059B132BD1D921E7059DC8
:1025F800037EA5EB0A05B3B1417E4FF6FF72FF29B2
:1026080018BF0A469D4202D313449D420BD98368E2
:1026180001211B4A204611F0FEFE20466FF01505E9
:10262800FFF760FE1BE7012111F079FAA06800F5B9
:102638003E7011F098FAA36811AA29465B692046F2
:1026480002EB8A0298470546A0684FF0FF324FF028
:10265800FF3300F53E7011F031FA0021A06811F047
:102668005EFAFCE631E2010882020208BCE10108D8
:10267800D0E10108EEE101081DE201083A03020871
:1026880055E2010810B50222836804461A7183686E
:102698009B6BBBB911F0C2F98368D3F86432DB04D1
:1026A8000BD50321084B094A11F0B5FEA0686FF459
:1026B800805100F5197011F0C9F92046BDE81040A5
:1026C80000F08ABE10BD00BF70E2010894DE010868
:1026D8002DE9F04F04468068B3B0012100F5197068
:1026E80011F0A5F9A3681B79022B20D100230B93C5
:1026F800A36860689E6B03681D690BAB0EB310225C
:102708001DA9A8470B9B93B10121A06811F007FAF6
:102718000B9A1DA92046B0470021A06811F0FFF9C7
:10272800A3689B6B002BE3D12046FFF7ABFFA068A3
:102738006FF0010100F5197033B0BDE8F04F11F0EA
:1027480085B901220DF12B01A8470B9B002BEED078
:102758009DF92B109DF82B300029A268C8DB517910
:10276800032900F20883DFE811F004007B029F02CE
:1027780006030D2B1BD00A2B19D0B2F864126FF385
:10278800CA01A2F86412092BA06850D036D8002BD1
:10279800AED0082B00F0C981A3F120025E2A00F216
:1027A800D081012111F0C6F99DF82B10EDE0D2F887
:1027B8006412C1F3C70129B1D2F86412C1F3C70189
:1027C8008B42E0D1B2F8641263F3CA01A2F8641232
:1027D800A568A98F61B9284611F0ACF9E06811F035
:1027E800B9FF6069FFF78EFD2046FFF74BFF7FE7D3
:1027F8002046FFF7E1FDC5F81003F5E71B2B13D0C2
:102808007F2BC9D1D0F860329D077FF571AF0121C8
:1028180011F090F9A368D3F86032190700F18D819F
:10282800204611F03AFE63E70123437160E7D0F8D0
:1028380060329B077FF55CAF012111F07BF9A0683E
:10284800838FFF2B3FF454AFC28F00F1420100F594
:10285800A170002512F00BFAA3681DA90DA8DA8F44
:10286800134483F842511423A26802F5A17211F0AF
:1028780085FA0D9914293FF63BAF32AB03EB810380
:1028880043F8545CA368DA8F134493F84130202B43
:1028980000F07382093B042B40F26F8201294FD864
:1028A80000250C950C9B32AA002602EB8303B04648
:1028B800374653F854AC504611F0EDF8814604966B
:1028C80018AA3946284600F0F7FB8346002844D169
:1028D800012E63D132AA0C9B02EB830353F8540CEC
:1028E80011F0D9F8A268064641460832284600F099
:1028F800E3FB0546006811F0CEF8864206D0821B3D
:102908002968204692B2314411F0C5FDA068C38FF2
:10291800034493F84230202B3BD0093B042B38D991
:10292800D0F86032DF072FD5002111F00DF92021F2
:10293800204600F01BFD0121A06811F005F9D7E63B
:10294800013900200EAB1DAA00930CAB019011F0C9
:1029580021FB05460028A5D1CAE64A465146DBF8C0
:10296800000012F04AF968B9DBF8000012F032F9F9
:10297800049B834238BF0346002E08BFB846013681
:102988009BB2049301379BE72021204600F0EEFC20
:10299800AEE60121204611F02AFCA9E67FF6A8AE92
:1029A8000C9B32AA02EB830353F854AC504611F047
:1029B80072F8A3680690A3F830B0DFF8D4B2059691
:1029C800CDF80C80A26828460399083200F074FB01
:1029D800039B074601330393BAF1000F52D13F68B6
:1029E800002F59D1A2681786059B013B0593E9D1B1
:1029F800606908F10109FFF785FC204600F0ECFC4E
:102A080032AA0C9B02EB830353F8540C11F043F8E1
:102A1800414613AA0746284600F04EFB8046A068A8
:102A2800FF22D8F8001000F5A17012F0A7F8D8F826
:102A380000A04FF6FF7818AA4946284609F1010B6D
:102A480000F03AFB002863D0A3680022006803F571
:102A5800A17313F801CB815C614505D121B1013225
:102A68004FF6FF718A42F4D10FB1BA4208DB4245F2
:102A780006F1FF36A8BF4246012E1FFA82F847D05A
:102A8800D946D8E700680028A9D0069A514612F01E
:102A9800B4F80028A3D095E7584610F0FCFF049B33
:102AA800A168C21858464B8D92B20893099210F04B
:102AB800F2FF0790384610F0EEFF099ADDE9071398
:102AC800A2EB0009A068591AB0F830C01FFA89F9BA
:102AD80091FBF2F292B20CF1010EBCFBF2F102FB97
:102AE80011C2A0F830E092B25AB95B46694A062191
:102AF8002046009711F08FFC4946204600F040FB25
:102B080072E73B46644A0621204611F084FCF3E74D
:102B1800B8F1000F3FF4ECADA8EB07020AEB070190
:102B2800204692B211F0B7FCE2E5D0F860329E0779
:102B38007FF5DEAD012110F0FDFF204611F0C8FC45
:102B4800D6E5D0F8602292077FF5D2AD013B162B6F
:102B58003FF6CEAD01A252F823F000BF512D000878
:102B6800C12B0008C92B000829280008452D00089A
:102B7800E72B0008F9260008F9260008F9260008BE
:102B8800F9260008EF2B0008F72B0008F9260008A3
:102B9800212C0008F92600082B2C0008F92600082B
:102BA800F9260008F9260008F92600082F2C000845
:102BB800F9260008592C0008204611F085FB97E5F6
:102BC800204611F07AFB204611F0C5FA10B9606969
:102BD800FFF798FB0121A06810F0ACFF04E620463F
:102BE80011F07AFB84E5204611F07FFB80E5D0F8F0
:102BF80060329F0603D52949606910F052FFA36827
:102C0800D3F860329E0603D52549606910F049FF64
:102C1800204600F0E1FB6BE500212046FFF778FB3A
:102C280066E50121F9E7204611F041FB204610F046
:102C3800F5FE0121A06810F07DFFA368D3F860328B
:102C48009D067FF555AD1749606910F02AFF4FE5DD
:102C5800204600F0F1FA0121A06810F06BFF47E56B
:102C68005B2B02D10223537142E5D2F86022900710
:102C780006D5622B08D14FF0FF31204611F0DBFA60
:102C8800A36800225A7133E5662BF9D10121F4E7D4
:102C9800CC040208B4E2010894DE0108F1CA010874
:102CA800F6CA0108ECCA010800215171A268D2F8DD
:102CB800601289077FF51CAD313B1B2B3FF618AD21
:102CC80001A151F823F000BF4D2D0008592D00082F
:102CD8006D2D0008412D0008F9260008F926000886
:102CE800F9260008F9260008F9260008F926000840
:102CF800F9260008F9260008F9260008F926000830
:102D0800F9260008F92600082B2C0008212C0008B9
:102D1800E72B0008C12B0008F9260008452D0008FC
:102D2800F9260008512D0008F9260008F9260008A0
:102D3800F92600085D2D000803235371204611F081
:102D4800BCFAD5E403235371204611F0B0FACFE45E
:102D580003235371A068D0F8601201F0010181F0DB
:102D68000101EAE503235371A368D3F860329B0796
:102D78007FF5BEAC54E5002375E700293FF490AD1C
:102D8800DFE500BF2DE9F04304468068884689B036
:102D9800D0F80C1315461F46002966D14FF445722A
:102DA80011F070FFA36822681A60E06811F074FDE2
:102DB800A06800F53E704FF42A794FF41A7618F09F
:102DC80030FDA068304419F0B1F9A0680022012153
:102DD80083191036484409F1140919F08AF9B6F52F
:102DE8002A7FEED1A369002602211E6066F38205C0
:102DF800A06800F5197010F01AFEA36850225A85D1
:102E08001822A3681A85A368186810F044FEA368FE
:102E1800174A414683F82C00A368C3F860526068DB
:102E280003681D682346A8470546D0B9A368012250
:102E38001A71D4E909010022002304950094CDE910
:102E480006230E234FF400620393109BCDE9017310
:102E5800084B0EF0BFFEA368C3F80C03216A0EF0FE
:102E6800F5FD284609B0BDE8F0836FF07705F8E76F
:102E7800C93A0108D52E000810B5044680680379C0
:102E8800012B1DD14FF0FF324FF0FF3300F53E709C
:102E980010F014FE2046082100F090F9206810F088
:102EA800FAFD18B10849606910F0FBFD2046FFF7EC
:102EB800E9FBA06800F53E7010F055FE002010BD3B
:102EC8006FF08500FBE700BFF9DC0108F8B50446A0
:102ED8004068002103689B68984700283FD1204636
:102EE800FFF7CAFF00283AD11D4E1E4FA06800F513
:102EF8002A704FF0FF324FF0FF3303210FF092FF9B
:102F08000546A0684FF0FF324FF0FF3300F53E70E2
:102F180075B110F0D3FD20462B46134A012111F05C
:102F28007AFAA068BDE8F84000F53E7010F01BBEC4
:102F380010F0C4FD32460221204610F096FD2046CE
:102F48003A46294610F091FD606803685B6903B151
:102F58009847A06800F53E7010F005FEC6E7F8BD7A
:102F6800DD3A0108D9260008BAE2010810B504467E
:102F78000C4A082110F03EFE20460B4A082110F0AA
:102F880039FE2046094A082110F034FE2046084A36
:102F9800082110F02FFE2046064A002100F03AFAD8
:102FA800002010BDD1E201080FE301086EE301081B
:102FB800C2E301085CE401082DE9F0470025DFF8C9
:102FC800AC80DFF8AC901646DFF8A8A01F462A4A66
:102FD8000B460821044610F00DFEAF4231D9735D4F
:102FE8004A460821204610F005FE0135102D20D153
:102FF8000025DFF88080DFF884900821204A2046E9
:1030080010F0F8FDBD422AD2735D08212046A3F1D5
:1030180020025F2A4A4628BF2E2310F0EBFD013517
:10302800102D14D12046174A0821BDE8F04710F0AA
:10303800E1BD6A07D1D152460821204610F0DAFDD9
:10304800CBE742460821204610F0D4FDCDE76B07B8
:10305800D8D142460821204610F0CCFDD2E742469E
:103068000821204610F0C6FDD9E700BFCB040208AE
:1030780079E40108CD04020872E40108A1E401081A
:103088007FE4010881E401081346002213B50446D1
:1030980000920A4601460748FDF746FE23691B7958
:1030A8002BB1204602B0BDE8104010F0FBBD02B0C5
:1030B80010BD00BFC53C010838B50B46154658B9C8
:1030C8001549164A521AB3EB920F02D30025284627
:1030D80038BD51F82350FAE78468002CF6D0104A1E
:1030E80094420AD30F4A944207D2184622682946C6
:1030F80090472B68002BEAD1E8E70B4A944208D3A3
:103108000A4A944205D2013314204343E518E35890
:10311800F0E72468F8E700BF9CCA0108C8CA01089C
:10312800DCCA0108E4CA0108C8CA0108DCCA0108E7
:103138008368D3F860329B0603D50249406910F0D2
:10314800E9BF7047FCCA0108014910F0E3BF00BF9E
:10315800FADC01080A1E0DDC0ED042238168D1F882
:103168006012890608D5002A04494069B8BF52424E
:1031780010F0D0BF4123F1E7704700BF9DE401087C
:103188000A1E0DDC0ED044238168D1F8601289062E
:1031980008D5002A04494069B8BF524210F0BABFA6
:1031A8004323F1E7704700BF9DE4010882680249A4
:1031B8004232406910F0AEBF94DE010808290A4681
:1031C80017D8836893F82E10914212D083F82E20D6
:1031D800082A8368D3F8603205D0990609D50549CD
:1031E800406910F097BF9B0603D50349406910F06A
:1031F80091BF7047A4E4010801CB010838B50D461A
:1032080009780446FFF7DAFF6A78072A11D8A36815
:1032180093F82F1091420CD083F82F20A368D3F88D
:1032280060329B0605D560690249BDE8384010F058
:1032380071BF38BDADE40108F8B5836804469A8FBC
:10324800002A4FD0D88F00284CD0413003F14206D5
:1032580018440346C51AB3421946ADB20DD311F846
:103268000179202F3CD01946013B0878202804D04A
:1032780001359E421946ADB2F5D96B1C4E1C521B46
:103288001944304611F0DBFCA368694220469A8F46
:1032980009B2521B9A87A268938F1A44002382F8B6
:1032A800423010F0A4FFA368D3F860329A0603D521
:1032B8000D49606910F02EFF33460C4A082120465C
:1032C80011F0A9F82046FFF733FFA368D3F860325E
:1032D8009B0607D560690649BDE8F84010F01ABF9B
:1032E8000B46B7E7F8BD00BF06CB010894DE01081E
:1032F8000ACB01082DE9F04104460D4617460AB1EC
:10330800FFF716FFA368D3F86022D88F520700F1A1
:10331800420003441FD51846DFF8488011F05AFCD4
:10332800064696B9A36820469A8FDA8710F0FFFE02
:1033380020B107B115B16069FFF706FF6942204661
:1033480009B2BDE8F04110F052BF41466069013E44
:1033580010F0E0FEE5E7044A0821204611F05BF88A
:10336800E0E700BF44DC010894DE010813B5836878
:1033780004468DF80710D3F86022D00722D5D98FDC
:103388009A8F8A421ED0481C9DF80720D8870B4484
:1033980083F84220A368D3F86012890710D5D3F8C0
:1033A8006032606913F0040F0A4918BF2A2210F02E
:1033B800B1FE204610F0CFFE10B16069FFF7C4FEE1
:1033C80002B010BD01220DF10701204611F030F8BE
:1033D800F6E700BFA1E4010810B583680446094A6E
:1033E80002211B6811F017F8A368D3F860329B0715
:1033F80007D52046FFF7DAFE2046BDE8104010F05A
:10340800D3BE10BD94DE0108014911F072B800BFA7
:10341800FADC01082DE9F04F0E4600218BB0044676
:1034280017460D4605AA304601F10108FFF744FE8C
:10343800B0B995B127B13A460821204610F0EBFF04
:103448000021224FDFF888A0DFF888B04B1C05AABE
:1034580030460293FFF730FE60B90BB0BDE8F08F3D
:10346800006810B111F0B6FB80B28542414638BF02
:103478000546D7E70368D0F804903846039311F05F
:10348800A9FB039B80467BB11A786AB15246082192
:103498002046CDE900533B4610F0BDFFB9F1000FBF
:1034A80004D16069FFF7B0FF0299CFE75A4620467A
:1034B8003B46082110F0AFFF6A1C4946204602EB44
:1034C800480292B211F022F8EEE700BFCFE40108FB
:1034D800B6E40108BDE40108F7B5064608680D46DC
:1034E800B8B111F077FB84B20B4F384611F072FB7C
:1034F80004442B683046A4B2084A0821009710F00B
:103508008AFF22466968304603B0BDE8F04010F0F3
:10351800FDBF0446E8E700BFCBE40108B5E20108B7
:1035280010B50749044611F05CFB38B1054920463F
:1035380011F057FBB0FA80F0400910BD0120FCE7FC
:10354800C1E40108C4E4010810B583680446D3F84F
:1035580060329B0603D50649406911F04EF8A3680E
:10356800502200205A851822A3681A8510BD00BF72
:103578000ECB010808B583690821034A1B6810F0BF
:1035880039FB002008BD00BFD2E401082DE9F34152
:103598000E4A082105460E4C10F02CFB0D4E002358
:1035A800DFF83480B44203F1010703D3002002B0EE
:1035B800BDE8F081A2689BB20821284612682C3425
:1035C8000092424610F016FB3B46EBE7E2E40108A6
:1035D80044CA01089CCA0108FAE40108024908B56E
:1035E80010F02EFB002008BDEEFF01087FB5044651
:1035F80000250E4EA2680DF10E030121E06802F5C8
:10360800A17211F0AAF8BDF80E00A36850B103F535
:10361800A17332460821204600932B4610F0EAFA9F
:103628000135E7E783F8420104B070BD06E50108FB
:1036380010B5044610F014FB034A0346082120463F
:1036480010F0D8FA002010BD88F40108022907B547
:103658000DD15368012101930C4B009313680C4A58
:1036680010F0C8FA6FF0150003B05DF804FB83682A
:103678000821084AD3F8603213F0020F064B18BF2E
:103688001346064A10F0B6FA0020EDE71DE50108DA
:1036980014E501084BDE010810E5010832E50108D0
:1036A80010B583680446D3F860329A0603D50749F3
:1036B800406910F0A2FFA368D3F860329B0603D5D7
:1036C8000349606910F099FF002010BD15CB01086F
:1036D8001ACB01080129F0B5044685B00DD053680E
:1036E8006FF01505012101935C4B009313685C4A48
:1036F80010F080FA284605B0F0BD8368D3F8603230
:103708009A0603D55749406910F077FF6FF0F90121
:103718002046FFF71FFDFA2120460025FFF730FD60
:10372800A0684FF48072294600F5A1708DF80B50FF
:103738004FF47A7611F0A6FA4B49606910F05DFFF4
:10374800606910F0AFFA606801220DF10B0103689F
:103758001F6903ABB847039B53B9013E4FF47A7016
:103768000FF048FBB6B2002EEDD16FF0850535E0BD
:103778009DF80B20A3681B2A62D093F842111B29DD
:10378800E1D1522A5CD11D44002385F84231A66854
:1037980096F843215B2A3AD106F5A275022015F85E
:1037A800012B014601303B2A80B233D1B0F5807F2E
:1037B800DBD001F24311002216FA81F111F8015B06
:1037C800002D32D1FA2A86F84251A16828BFFA2280
:1037D800FA2B4A8528BFFA23A2681385A368D3F871
:1037E80060329B0603D52149606910F006FF002D61
:1037F80080D0A3685022032120465A851822A36846
:103808006FF007051A851A4A10F0F4F972E786F87E
:103818004231AAE703EB8303B0F5807F02EB430351
:10382800A3F130039BB2BAD19FE702EB82020130C9
:1038380005EB420580B2303DFF28AAB2BED994E715
:103848002B440135ADB283F84221092D7FF67BAFB9
:10385800A368002283F8422187E700BF1DE501081D
:1038680014E5010820CB01080DEA010824CB010862
:1038780043E501082DE9F04F074689B0154689460A
:1038880021B90324204609B0BDE8F08F104611F095
:1038980009F80028F5D04FF000080224414624E03A
:1038A8005C463CE029460AF5A17011F03DF9064650
:1038B80000284CD011F08EF9314682B2601C08F114
:1038C80001080132304411F0BAF92246594630460F
:1038D80011F0CDF94FF020033355BAF8400001300C
:1038E8000444AAF84040002401994B1C03AA484606
:1038F8000193FFF7E1FB0646E8B10022316828464C
:1039080011F020FB0028EFD1D6F800B0D7F808A0B6
:10391800BBF1000FC4D0584611F05CF984B2BAF874
:1039280040202244FF2ABDDD01242B46094A0321F9
:10393800384610F070FDB8F1000FA3D0B8682A46D9
:1039480000F1400100F5A17010F0DDFA9AE70224B9
:10395800F1E700BF12EA0108014910220A60704726
:1039680010ED00E072B6404080F31188BFF36F8F0E
:10397800BFF34F8F30BF62B6BFF36F8F704700BF82
:1039880003B2002B08DB012200F01F005B0902FADA
:1039980000F0024A42F82300704700BF00E100E04F
:1039A80003B2002B0DDB01225B0900F01F0020335E
:1039B80002FA00F0034A42F82300BFF34F8FBFF327
:1039C8006F8F704700E100E04209054B00F01F00CF
:1039D80053F82220012303FA00F01040704700BF7B
:1039E80000E100E003B20131002B4FEA0111C9B236
:1039F80006DB03F1604303F5614383F80013704766
:103A080000F00F00014B1954704700BF14ED00E09F
:103A180030BFFFF7FDBF00BF0F4A08B522F07F0295
:103A28000E4B9A60BFF34F8FBFF36F8FD3F8882088
:103A380022F47002C3F88820EFF3148323F0040300
:103A480083F31488BFF36F8F0DF0AEFE0FF04CF8C0
:103A580000F014FA0DF008FF0000000800ED00E087
:103A68000A4A0B4993680968C3F8AC00C3F8B01058
:103A780008494B6843F080534B60002383F3118857
:103A8800BFF36F8F9368D3F8B0007047E82F002416
:103A98002CDB010800ED00E013498A684FF0300084
:103AA8001044EFF3098C80E8F01F102080F312888F
:103AB800BFF36F8F0D4F4FF000664A698A603E6012
:103AC800D2F8AC000023C2F8AC3080F3118804B5FA
:103AD800104600F01DFABDE8044002F1300090E8FD
:103AE800F01F8CF309887047E82F002404ED00E0EC
:103AF8001EF0040F0CBFEFF30880EFF30980816913
:103B080011F8021C0229FFD001B510F011FF01BD08
:103B180042F8203C203A009B08495360019B21F061
:103B280001019360029B9161D3604FF08073D36170
:103B380000230265C0F8AC30704700BFB3300108FD
:103B48000A4A0346906878B113F1160FD0F89C0022
:103B580005D0A0F140029A4205D8834203D281429F
:103B680028BF002070470020704700BFE82F0024BE
:103B780008B5094B0D461446986000F0C9F920466F
:103B880085F30988002163B681F31188BFF36F8F2D
:103B9800002200230FF089FAE82F002401B5EFF383
:103BA8000580A0F110004FEAC0000449014409C98A
:103BB8009847BDE80140024908470000E4C30108EE
:103BC800CD3B0008044B99685869884203D00349E3
:103BD8004FF080520A607047E82F002404ED00E09F
:103BE800264B70B515469A6A064612F0100F9A6A67
:103BF80014BF1124102412F0080F9A6A18BF122457
:103C080092070AD5586B9A6A140634D519B19A6A7C
:103C180022F080029A62132401E06FF01500174B1E
:103C28009A6A12F0010F9A6A18BF142412F0200F32
:103C38009A6A18BF1524D20602D49B6A9B070AD534
:103C48000E4B5B68190506D53146FFF779FF10B1B1
:103C580080F309880224094B9A6A920603D55A6AA6
:103C680022F400525A629A6A204642F0FF029A628F
:103C780000232B7070BD6FF01500CCE700ED00E05D
:103C8800134B9A6A12F0007F9A6A14BF1E201D20F7
:103C980012F0807F9A6A18BF1F2012F4002F9A6AC8
:103CA80018BF212012F4802F9A6A18BF222012F41C
:103CB800003F9A6A18BF232012F4803F9A6A6FEA7D
:103CC800024218BF24206FEA12429A62704700BF6E
:103CD80000ED00E0184B024610B5986A9C6A10F493
:103CE800805F14BF1720162014F4006F9C6A18BF59
:103CF8001820A40509D5986B986A000404D51AB150
:103D08009A6A22F400429A6219200B4B9A6A12F4BA
:103D1800806F9A6A18BF1A20D2050BD49A6A12F4D7
:103D2800005F18BF1C209A6A42F47F429A620023FF
:103D38000B7010BD1B20F6E700ED00E0454B70B599
:103D48005B688AB00D460026C3F3080386F3118822
:103D5800BFF36F8F02F07F41B1F17F4F11D102F0B5
:103D68000C0108290DD0140701D4054601260022AC
:103D7800033B8DF80720032B09D8DFE803F0045D27
:103D8800615A3546F3E7334BDA6A910701D50024C7
:103D980028E0DA6A002AFADBDA6A5200F7D55A69AB
:103DA800A96942F480725A61BFF34F8FBFF36F8FD6
:103DB8005A6931F8021C22F480725A61BFF34F8F9E
:103DC800BFF36F8F4DF6027291420AD09A6AD2B24F
:103DD80002B30DF1070201212846FFF701FF04464F
:103DE80000E02C689DF8073093B92022294602A8E4
:103DF80010F03DFF099B3EB3C3F3080222B96FEAF6
:103E080053236FEA4323099302A9204610F08EFD3D
:103E18000AB070BD9A6A12F47F4F05D00DF1070100
:103E28000120FFF757FFDAE79B6A1B0C1B04002BE6
:103E3800ADD0FFF725FFD2E70DF107020021CBE750
:103E48000DF107010020ECE723F4FF7323F00103D1
:103E5800D9E700BF00ED00E0024A536943F01003C0
:103E68005361704700ED00E0EFF30880EFF309813C
:103E780001B57246FFF762FF01BD00BF0023044889
:103E88001021C2180133962B82F80013F9D170471C
:103E980000E100E0102080F311880B484FF0AA01E0
:103EA8004FF4046217F0D5FB07484FF4046140183B
:103EB80080F30988EFF314800221084380F3148803
:103EC800BFF36F8FFFF7A8FD40570024084B9B688E
:103ED80083420BD1EFF3058343B1064B5A6842F096
:103EE80080525A605A6A22F400425A620EF086BD25
:103EF800E82F002400ED00E0024B0221024A0348AB
:103F080000F070B80000082400000024E0CF010889
:103F1800D0F89C204021054B403A18461A60044AC4
:103F2800C3E90112012100F067B800BFB0230024E3
:103F380000000B15F0B500261E4F8E4201DB10461F
:103F4800F0BD44689CB353B104F1FF3C14EA0C0F74
:103F580018D11F2C16D905681CEA050F12D1202C80
:103F6800D2B20568D0F808C00FD9B4F1004F0ED806
:103F7800013CB4FA84F4C4F11F0464000F2A4CEA2B
:103F8800040406D96FF01502D9E70824F6E73E24A1
:103F9800F4E725F01F05C7F8982044F001041543FD
:103FA800013245F01005C7F89C50C7F8A04001360B
:103FB8000C30C2E700ED00E0044B0522C3F8942062
:103FC800BFF34F8FBFF36F8F704700BF00ED00E066
:103FD800BFF35F8F024B0022C3F89420704700BFE5
:103FE80000ED00E010B5034C01232278FFF7A2FF93
:103FF800207010BD65300024094A08B500231278E6
:10400800FFF798FF10F1160F02D0064A0F2800DDBF
:1040180008BDC2F898000130C2F8A030F6E700BF2A
:104028006530002400ED00E02648F8B50368102B41
:1040380045D8FFF7CDFF244A5369DB031ED500237B
:10404800C2F88430BFF34F8FD2F8803043F6E07562
:10405800C3F3C904C3F34E335B0103EA05072146E2
:1040680047EA81760139C2F87462F9D2203B13F12C
:10407800200FF2D1BFF34F8FBFF36F8FD0E900410C
:1040880000221148A24201F10C0105D10F4B00207A
:104098001A70FFF791FFF8BDC0F8982051F80C3C52
:1040A80023F01F031343013243F01003C0F89C3080
:1040B80051F8043C43F00103C0F8A030E2E74FF0A8
:1040C800FF30E8E728CB010800ED00E06530002468
:1040D800014B1860704700BF240900240CB410B5C8
:1040E80086B009B90DF10B00002409AB089A0094B9
:1040F8000393CDE9040104A90448FCF715FE049BC9
:104108001C7006B0BDE8104002B07047C34C0108EF
:1041180007B50848042283680DEB02011B6898471D
:10412800002802DA0CF0AAF90190019803B05DF8B2
:1041380004FB00BF9CC30108F7B506460D460D48B1
:104148008AB2314683681B689847002810DA002431
:104158000CE02F1B042F28BF04270CF08FF90190C7
:1041680030193C443A4601A910F081FDA542F0D827
:1041780003B0F0BD9CC30108827A2C21054B01FBDA
:1041880002339A6A1B7F801A1B3323F00303B0FBA8
:10419800F3F07047C811002410B50A4B2C24827A1A
:1041A80004FB02330A685B6A5C6823689A4294BF1E
:1041B8000A600B60FFF7E0FFD4E9002302FB003040
:1041C80010BD00BFC81100242DE9F74F0546019125
:1041D800104619469146984617461E4617F012FE95
:1041E80082468B464FF01003EFF3118183F3128858
:1041F800BFF36F8F6B8B002B5AD02A8B9A423ED914
:1042080000910022002328460DF0C2FE00990446C2
:10421800002834D081F31188BFF36F8F019B002BE6
:1042280056D058EA09030FD0B8F1FF3F08BFB9F1DB
:10423800FF3F09D00EF0C4FDBAEB00076BEB010697
:10424800002EBCBF00273E46A37A4FF02C09DFF8AA
:1042580098803A4601A9204609FB03835B6A1B68DC
:104268001D683346A84705466061002831D1A07A09
:1042780021462C4600FB098017F062FB24E0688B7E
:10428800431E6B8381F31188BFF36F8F2C7F174A0E
:104298001B3424F003032C8B201AAC6A00FB034464
:1042A800114BEB1A9B105343A3722B7FE372B5E7B4
:1042B80081F31188BFF36F8F4A46434628460DF0B5
:1042C80067FE04460028A9D1204603B0BDE8F08F58
:1042D800636100230122636022812382019A63695A
:1042E8006282E360F0E700BFC8110024A38B2EBAF6
:1042F8002DE9F0410446164D00262C270CB9BDE8DF
:10430800F081237AD4F80480013BDBB22372002BBE
:10431800F5D1616959B1637ADB0707D4A37A2046DE
:1043280007FB03535B6A1B689B6898476661A07A22
:10433800E66007FB005366601B6A1BB1204698477E
:104348004446DBE7214600FB075017F0F9FAF7E788
:10435800C8110024004870478CEA01082DE9F0478D
:10436800036881460D461B68D3F808A0BAF1000F10
:1043780000F0C48091F837305E09012E41D18B6876
:104388008F69DC6802F028FA036822699A4200F013
:10439800B88004F11001384601F0F4FD002840F01F
:1043A800B080AB68D9681031084610F047FE024665
:1043B800002840F0A680284600F0C8F90446E8B175
:1043C800854200F09F80284612F087FF94F8373026
:1043D80066F3471384F837304FF4C167E36A23B9AB
:1043E800494BE362062384F830304FF47A72002395
:1043F8000E21204602F086FD064678B96FF00B06BE
:1044080055E0022E06D001220C4662F3471381F8CC
:104418003730E1E70C464DF68657DFE7B7F5C16F51
:10442800D0F80C805AD094F837205209012A41D18B
:10443800A368DA681032104610F000FE00284DD04C
:104448004146104610F0F5FE0622616A08EB0200AC
:1044580010F00DFC0E2106F10C00A8F80C7010F0FD
:10446800C6FD3146204612F062FF204612F0C7FF13
:10447800D9F80020DAF8183021461068984706461F
:10448800A0687EB34368A3600023436012F021FF55
:10449800B7F5C16F0BD1284612F0FFFEA368484656
:1044A800D968103100F0BAFA204612F016FF3046EB
:1044B800BDE8F087022A11D1A368DB681B7EFF2BB9
:1044C8000CD11249404610F0D2FBA368042208F12F
:1044D8000200D968243110F0CAFBB5E70622E16A68
:1044E8004046F8E703462BB94268A260436012F0E1
:1044F800F0FED9E71A8A5B681644F4E76FF0010604
:10450800D5E72C46082769E78CEA010892EA0108F2
:1045180038B5036805460D499C6801236061201D74
:10452800237617F0ADFA2B6818688368DB6833B117
:104538009847430542BF237E43F00403237600F0E7
:104548009DFA637E43F00203637638BDBF500108CD
:1045580008B5084B5A683AB11B68002123B19A4242
:1045680004D1044810F0A4FE104608BD19461B6883
:10457800F4E700BF4024002402460B4601480DF032
:104588004FBC00BF2424002401480DF0C3BC00BF69
:10459800242400242DE9F34705460F464FF0FF3049
:1045A8004FF0FF31164698469DF82890FFF7E4FF34
:1045B800DFF800A100233A462946019301ABDAF857
:1045C800000010F0A3FE044620B1024601995046AF
:1045D80010F06EFEDAF8003013B9374817F09CFA7D
:1045E800002C46D1B8F1000F0DD0344801AB3A4643
:1045F80029460068019410F089FE20B10622314650
:10460800103010F034FBB9F1000F0FD000232B4805
:104618003A462946019301AB006810F077FE03463D
:1046280048B106223146103010F021FB02B0BDE837
:10463800F047FFF7A9BF22480468ACB9FFF788FF25
:1046480004460028F2D010F043FEC4E901053B6897
:10465800E3600622314604F1100010F008FB214601
:10466800164810F01EFEE1E72246194610F020FE1B
:10467800E9E73146062204F1100004F1180606277E
:1046880010F0F5FA21460D4810F00BFEA369002B37
:10469800CCD04FF0FF324FF0FF3330460DF078FCAE
:1046A800836880F830700146DB68C362284611F0E1
:1046B80066FCEBE7382400248815002440240024F5
:1046C8001C2400242DE9F041DFF8748010F000FE6E
:1046D8004FF0FF3107464FF0FF30FFF74DFFD8F896
:1046E800004044B32568174E6268D21B02F5FA638E
:1046F800002B15DC0121204610F017FE2246002170
:10470800404610F0D5FD0023236073682BB9C6E935
:10471800004485B12C462D68E6E71C607460F8E714
:1047280012F5FA6F4FF00A02074808BF0023A3FBEF
:1047380002230DF06FFEBDE8F041FFF725BF00BF73
:10474800382400241C240024881500242DE9F04F67
:104758008A4685B09046054620B90024204605B013
:10476800BDE8F08F8368002BF7D05AB9806911F043
:104778008FFB38B9AB69DB6823B103F1480A9B6C3E
:10478800002BEAD04FF0FF304FF0FF31FFF7F4FE77
:104798006E4E00235246A969039303AB306810F0AC
:1047A800B5FD0446002800F0A4803368984207D07D
:1047B80002460399304610F07BFD214610F071FD4A
:1047C800FFF7E2FEA36810341B681B69EC622C46F5
:1047D8006B62062385F8283085F83030BEE722461C
:1047E800314610F065FD98E0284612F056FD014666
:1047F80006F1180017F0AEF8002800F08E80FFF7D9
:10480800C3FEABE72E46B0681C210C3010F0EFFB5E
:10481800B368DF68002C59D0284612F03EFD0146E7
:1048280004F1180017F081F8B369A360DAF80030D2
:10483800E360A3681B681B69736200232360D9F8CF
:104848000430002B3ED1C9E9004410F041FD6060FE
:104858003F4817F0C1FA50EA010305D144F6206237
:1048680000233C480DF0D6FD4FF0060B4FF004092D
:1048780086F828B0FFF76EFD002101230822F062B8
:1048880007F1120086F830B07B70BA705A46FB7197
:104898003970F97087F804B087F80590B97110F08D
:1048A800F1F9DAF80030BB615A46716A07F108007D
:1048B80010F0DDF97CB9AB68D9680C310B68C7F822
:1048C8000E303FE01C60C9F80440BEE7DBF800305A
:1048D8001B697362C8E7A3684146D86810F000FDF9
:1048E80001460028EAD14A4607F10E0010F0CAF93D
:1048F80028E0DFF864900346A969D9F8000010F0B1
:1049080005FD064600287FF46FAF14480468002CA4
:104918007FF465AFFFF71CFE0446D5F818B0B8F170
:10492800000F7FF46FAF4FF47A7200231C215846B2
:10493800CDE900234346424602F012FC0646002811
:104948007FF461AF3446FFF71FFE07E740240024D9
:104958009815002488150024382400241C240024D9
:104968002DE9F843DFF8A48005464FF0FF314FF0FA
:10497800FF30FFF701FED8F800404CB9244F3C68DF
:104988001CBB244817F0C8F8BDE8F843FFF7FCBD86
:1049980026680027DFF88090234615B1A268AA424E
:1049A8000DD10021204610F0C0FC39464046224671
:1049B80010F07EFC2146484610F073FC3B46002E62
:1049C800DCD034461F463668E6E726684FF0000814
:1049D800DFF84490234615B1A26895420DD1012114
:1049E800204610F0A2FC41463846224610F060FCF2
:1049F8002146484610F055FC43461EB134469846B9
:104A08003668E7E73B68002BBED1BAE740240024AC
:104A180038240024881500241C2400240A46014652
:104A2800074808B50023006810F070FC20B1012188
:104A380010F07BFC002008BD6FF00100FBE700BF11
:104A480038240024F8B506460F464FF0FF304FF0E3
:104A5800FF31FFF791FD084B1C685CB1002520462B
:104A68003946B04724680135002CF8D1FFF78CFD92
:104A78002846F8BD2546F9E74024002438B5124DEC
:104A88002B7803BB114A124CC2E90033114AC4E91E
:104A98000033C2E90033104816F03BFF0F492046A7
:104AA80010F0FFFB01F1480016F033FF20460C49D7
:104AB80010F0F7FB0B490C4817F020F80B4816F0DC
:104AC800B0FE01232B7038BD663000243824002442
:104AD8001C24002440240024D4230024BC230024C4
:104AE800EC230024CD460008881500242424002443
:104AF800036804481BBA1B0C1B041B1A5842584174
:104B0800704700BF0000FEA98388022B06D100F180
:104B1800080281691023064801F022BF012B05D144
:104B280000F10802816910230248F5E7704700BFC9
:104B38000A0060E0060004E00A4A034610B510F0D7
:104B48009FFE82420C460BD11B6818688368DB689D
:104B58000BB1984703461C420CBF0120002010BD32
:104B68000120FCE7F412002438B54FF0FF324FF073
:104B7800FF33044616480D4610F002FF154A92F816
:104B88002230D80708D5990706D59388AB4203D1B8
:104B980074B193699C4218D092F8463013F0010022
:104BA80011D09B070FD5138DAB420CD144B901240A
:104BB800242303FB0424064810F005FF204638BDD3
:104BC800D36B9C42F3D00024F5E70024F0E700BF44
:104BD800D8100024082600242DE9F84F10F0B3FE61
:104BE8004FF0FF3380464FF0FF32204810F0C8FEE8
:104BF8001F4B1C6825461CB155F8144904B1143CD8
:104C08004FF0FF364FF00209DFF864A0F5B105F167
:104C1800140B4146584611F06CFA074688B95946B4
:104C2800504685F82D9010F0FFFD3A463946584613
:104C380011F029FABCB1636903B1143B25461C463F
:104C4800E4E7864228BF0646AC42F3D1731C05D080
:104C58000A230848A6FB03230DF0DCFB0348BDE844
:104C6800F84F10F0B0BE2346E8E700BFD810002484
:104C780048240024B815002438B54FF0FF324FF00F
:104C8800FF330446184810F07BFE184B1968F1B141
:104C98000A684FF0FF334FF47A7549B95A1C1BD193
:104CA800134816F039FF1048BDE8384010F08BBEA5
:104CB800088CC969091B05FB001100290BDD8B4213
:104CC80028BF0B462AB1106811460246E5E70A4696
:104CD800DFE71046F8E700230A220548A3FB022372
:104CE8000DF098FBDFE700BFD810002460240024F3
:104CF800481600242DE9F74F8946DFF8E0B0BDF8E3
:104D08003010074690469A464FF0FF324FF0FF3377
:104D18003348019110F034FE9BF82260019916F097
:104D2800010604D09BF84630DB0754D4012624251D
:104D380075430BEB050494F82230A76143F0010397
:104D4800A4F8049084F8223049B3DBB2218423F01C
:104D5800060343F0020384F8223010F0F4FD2146E4
:104D6800E061204810F056FDE069FFF785FF08353F
:104D7800B9F1020F5D441CD00422414628460FF0C9
:104D880076FF24232A46394603FB06B6164896F8CA
:104D980022306AF3410386F82230042312E094F8A3
:104DA8002230218423F0060343F0040384F82230E0
:104DB800DDE71022414628460FF059FF10232A4606
:104DC80039460A4801F0CCFD054810F0FCFD2046A4
:104DD80003B0BDE8F08F0024F6E700BF08260024E2
:104DE800D810002460240024050004E0090060E0D5
:104DF80038B505464FF0FF324FF0FF330F4810F03B
:104E0800BFFD95F8224014F0010412D02846FFF7A0
:104E18007BFE29460A4810F007FD18B110F093FDF3
:104E2800FFF72AFF95F8223001246FF3000385F875
:104E38002230024810F0C7FD204638BDD8100024A3
:104E48006024002410B50C460021024684F82D1079
:104E580010F09FFD60B30821104610F09AFD38B39A
:104E680001232146104684F82E3014F03DF8F8B995
:104E780010F069FD4FF0FF334FF0FF32A0620D488C
:104E880010F07EFD04F124010B4810F0C3FC094822
:104E980010F099FD094816F09FFF50EA010307D169
:104EA8004FF47A7200230648BDE810400DF0B2BAFC
:104EB80010BD00BFD810002450240024F815002489
:104EC800E81500242DE9F74F0F461E4C814616467B
:104ED8004FF0FF334FF0FF321B484FF0000810F03F
:104EE8004FFD25464FF0240BBAB20BFB08FA05EB31
:104EF8000A0393F82230DB071ED5A38893421BD1FF
:104F0800A3694B4518D1022F04F1080010D131468E
:104F1800019210F010FD019A70B155440A4810F042
:104F280052FD284603B0BDE8F08F4FF00108DCE7DA
:104F38003168A3689942F0D02434B8F1000FF4D056
:104F48000025EBE708260024D81000242DE9F041BD
:104F580005468846164610F015FDEC68C4B905F1FB
:104F6800480010F030FD2046BDE8F0812388012B71
:104F780016D104342046FFF7BBFD88B90422214628
:104F8800404610F099FC3378834209D83070E6E740
:104F9800E36A044A23F07D4303F0FF239342E5D0FC
:104FA8000024DCE7000100022DE9F84F06460D4613
:104FB800904610F0E7FCB768002F3BD00024391D5D
:104FC8004FF0300B1C4BA1460BFB047ADAF82C206F
:104FD80022F07D4202F0FF229A4220D131F8042CBF
:104FE800022A1CD1088848F2FE02904217D01022EB
:104FF800284610F061FC98F800200F4B82420ED82A
:105008009AF82F20520707D53F2805D82A78FF2A73
:1050180005D16A78032A02D1894688F8000001344C
:105028003031032CD0D106F1480010F0CCFC4846B2
:10503800BDE8F88FB946F6E7000100022DE9F04710
:10504800204E10F080FC4FF0FF3280464FF0FF33C7
:105058001D4810F095FC34683CB94046FFF70CFE3B
:105068001948BDE8F04710F0AEBC002527684FF49A
:105078007A7AA946E3692246218CA3EB08030AFB46
:105088000133002B12DC2046FFF73EFD22689DB954
:1050980073683260A34200D1726094F822302A46C5
:1050A800C4F8009069F3000384F82230002FD4D0AC
:1050B8003C4615463F68DDE72A607368A34208BF8F
:1050C8007560EAE760240024D8100024002809DD70
:1050D800431E6022044802FB0300044B984228BF89
:1050E800002070470020704778120024D81200244E
:1050F8000346064A0648904201D3002070470168DB
:1051080009688B42FAD06030F5E700BFD812002456
:1051180078120024054B064A934205D0054A1068C8
:10512800002808BF184670470020704778120024EE
:10513800D812002470240024F8B54FF0FF33054638
:1051480017460E484FF0FF320E4610F019FC0C4B74
:105158001B6823B90948BDE8F84010F034BC1C6846
:105168005A68AA4204D19B683A463146284698476D
:10517800002CEFD023462468F2E700BFD8100024A3
:105188000026002438B505460C4610F0FBFB072125
:10519800284610F0FEFB20B3AB6843B10CB1236086
:1051A800002405F1480010F00EFC204638BD4FF0F1
:1051B800FF324FF0FF330C4810F0E2FB0B4BD3F8F3
:1051C800282142B9AB60C3F8285104B123600648CE
:1051D80010F0F9FBE4E704486FF0020410F0F3FB69
:1051E800DFE76FF08504DCE7D8100024CC24002426
:1051F80038B5044610F0C6FB0B21204610F0C9FB59
:1052080020BBA56815B3204613F07CFFF0B910F059
:105218009AFB4FF0FF334FF0FF32C5F820010E48DC
:1052280010F0AEFB05F58E710C4810F0F3FA0A4841
:1052380010F0C9FB0A4816F0CFFD50EA010305D16A
:1052480042F21072002307480DF0E4F804F1480018
:10525800BDE8384010F0B7BBD810002468240024FB
:105268008816002478160024F7B510F06CFB00238C
:105278002F4D06464FF0FF322E48CDE900334FF050
:10528800FF3310F07DFB2B687BB31C68A3F58E728F
:105298000CB1A4F58E740027D2F82011891B01F5F2
:1052A8007A73002B16DC686802F58E71D2F81C310F
:1052B8008142C2F81C7168462B6008BF6B6010F011
:1052C800A9FA94B1D4F81C310BB1A3F58E73224618
:1052D8001C46E1E711F57A7F4FF00A02164808BF2D
:1052E8000023A3FB02230DF095F8124810F06BFB86
:1052F800009CDCB1A4F58E74104D94F8243110484C
:105308000133DBB284F82431A84205D3D4F81C4118
:1053180064B1A4F58E74F0E78268A24201D06030CF
:10532800F2E7022BF2D8FFF763FFEFE703B0F0BD17
:1053380068240024D810002478160024D8120024E9
:105348007812002438B5044610F01CFBA56875B126
:105358004FF0FF324FF0FF33084810F011FB05F50E
:105368008E71074810F060FA044810F02CFB04F125
:105378004800BDE8384010F026BB00BFD810002414
:10538800682400242DE9F74F80460E461B4C4FF049
:10539800300BDFF86CA0544501D3002525E02046EA
:1053A80004F1480910F0EEFAA36823B948466034BE
:1053B80010F009FBEFE7191D00270BFB073595F8DF
:1053C8002F20920715D531F8042C022A11D18022FA
:1053D80040460193009110F08AFADDE9001340B1CC
:1053E80006B13460484610F0EEFA284603B0BDE82E
:1053F800F08F01373031032FDFD1D7E7781200243F
:10540800D81200242DE9FF4110F09DFA00234FF037
:10541800FF3206462948CDE902334FF0FF3310F03A
:10542800AFFA274A14681CB354F8245905B1243D2F
:10543800C6F164060027A36A3344002B12DC5068C7
:1054480004F12401636A8142676202A8136008BFFD
:10545800536010F0DFF95DB16B6A03B1243B2C4651
:105468001D46E8E70A22174883FB02230CF0D2FF07
:10547800124810F0A8FA029CE4B1243C0126002747
:10548800DFF84480251D01A984F82D60284601977E
:10549800FFF778FF844209D10199404610232A4634
:1054A80001F05EFA2946019803F0E8FA646A0CB143
:1054B800243CE7E704B0BDE8F08100BFD810002421
:1054C80050240024E81500240D0060E070B5114E4A
:1054D80004464FF0FF324FF0FF3330460D4610F0D0
:1054E8004FFA012314340C486376214610F092F9E0
:1054F80010F029FA29460246204610F0C4FD002281
:10550800002306480CF086FF3046BDE8704010F0D6
:105518005ABA00BFD810002448240024B815002423
:105528002DE9F04F04468BB0894690469A4610F014
:1055380029FA01A92046FFF725FE002808DA0027E6
:1055480004F1480010F03FFA38460BB0BDE8F08F80
:10555800D4F808B0002530230BF1040603FB05B787
:1055680097F82F20920706D53146484610F0E3F900
:1055780030230028E4D101353036032DEED1019DCA
:1055880095F82F309F07C3F3400609D595F85F308B
:10559800980740F1A38095F88F309907CFD4022659
:1055A80030270DF1080E09F1100B7743F446EA197C
:1055B80092F82F3043F0020382F82F300223EB5386
:1055C8004B4682F82C801868083353F8041CF046C0
:1055D8005B45A8E80300C646F5D102F1040E0DF1BB
:1055E800180863460EF1080E03CB43454EF8080C25
:1055F8004EF8041C9C46F4D1302303FB065595F85D
:105608002F30BAF1000F6BD06FF3000351461046EC
:1056180085F82F30FFF75AFF204607F1040A10F0EB
:105628003EF9020761D4484610F019F900285CD108
:105638000B21204610F0ADF98346002855D12046AD
:10564800DDF8049010F02BF9C307054637D540F272
:10565800FF23ADF81830ADF81AB0ADF81CB0ADF8AE
:105668001EB0ADF820B0ADF822B0ADF824B04FF4BC
:10567800807BADF826B04146204603F0BBFE15F00E
:10568800020540F2FF231AD10693ADF81C50ADF87D
:105698001E50ADF82050FF23ADF822B08DF824300D
:1056A800302303FB0696D144737C8DF82530B9F876
:1056B8000E30ADF826304146204603F09BFE019996
:1056C80020463944FFF7BEFB019A102321460B48B8
:1056D800524401F045F9019B1F4431E701265FE779
:1056E80043F0010385F82F3096E73022019B02FB37
:1056F8000633012283F82D20E6E700BF010060E0B1
:1057080010B50368002104469A7E10F042F950BB98
:10571800022321688B762068817E994243D1062B2B
:1057280030D1062A3FD0082110F03EF90023214647
:105738001D481A4601F014F9204610F0B0F8030786
:1057480031D40721204610F024F960B30B212046FC
:1057580010F01FF938BB204610F0E4F92046BDE8E8
:105768001040FFF745BD0921204610F012F9002826
:10577800CED00A21204610F00CF900280CBF0623D1
:105788000523C6E7062A0ED108210C3010F0E3F8ED
:105798000023214605481A4601F0E2F82046BDE8F4
:1057A800104010F07CB810BD020001D0010001D0FB
:1057B800F8B505460F4610F0E5F8AC6834B9002492
:1057C80005F1480010F0FFF82046F8BD94F8A43021
:1057D800DA071DD494F8BC30DB07F0D504F1AC0629
:1057E8003946304610F0A7F80028E8D001231822DF
:1057F80029460C4802FB0344324694F8A4306FF360
:10580800000384F8A4301023012401F0A9F8D7E795
:1058180004F194063946304610F08DF80028D9D0A6
:105828000023E4E7040060E02DE9F04F044687B068
:105838000D4610F0A7F8D4F80880B8F1000F08D189
:10584800002604F1480010F0BEF8304607B0BDE865
:10585800F08F08F1040900274FF0300B0BFB07FA13
:1058680008EB0A0303F12802019293F82F309A07F4
:1058780050D52946484610F05EF80646002849D01B
:10588800019AD379DB0717D44FF0FF334FF0FF327B
:10589800234810F075F80AF11401DFF888A0414494
:1058A80050460FF0C1FFDAF8003013B91E4816F061
:1058B80033F91B4810F087F8302303FB078797F864
:1058C8002F306FF3410387F82F3040F2FF23029304
:1058D8000023ADF80C30ADF80E30ADF810304FF4B1
:1058E8008073EA7BADF81230FF238DF814306B7BA0
:1058F8008DF81530AB7B43EA0223ADF8163002A9C8
:105908002046FFF755FF10234A462146074801F075
:1059180027F896E7013709F13009032F9ED18FE761
:10592800D810002448240024B8150024020060E0A0
:1059380037B50D46019010F025F801A92846FFF764
:1059480021FD0446C0B14FF0FF324FF0FF330D4840
:1059580010F016F804F124010B480FF065FF094810
:1059680010F031F8019909481023221D00F0F8FFC2
:1059780029460198FFF758FF0198483010F023F89E
:1059880003B030BDD8100024502400240E0060E07D
:105998002DE9FF410FF0D7FF002307464FF0FF32F4
:1059A8003048CDE902334FF0FF330FF0E9FF2E4BBB
:1059B8001C68002C52D025684FF0FF36DFF8A8800D
:1059C800B4B13946204610F094FB60B921464046F0
:1059D8000FF02AFF02A80FF01DFF002D40D02B6802
:1059E8002C461D46ECE7864228BF0646AC42F4D159
:1059F800731C05D00A231D48A6FB03230CF00AFDDF
:105A080018480FF0E0FF029C2CB3194E206A0FF0E3
:105A1800B9FF94F8253001A9206A6FF3410384F88F
:105A28002530FFF7AFFB002812DB04F1100594F8CE
:105A3800243001992A46206A10F0EFF830461023E6
:105A48002A46216A00F08CFF206A48300FF0BBFF1D
:105A58002468002CDAD104B0BDE8F0812546ABE714
:105A68002B46BDE7D810002458240024181600241B
:105A7800060060E02DE9F84307460E46214DDFF8A1
:105A880088904D4501D3002437E01EB133680BB12F
:105A9800AB4209D1284605F148080FF073FFAC68FE
:105AA80024B940460FF08FFF6035EAE794F8A43038
:105AB800DA070AD5B4F89030022B06D1802204F117
:105AC800940138460FF013FFD0B994F8BC30DB07C7
:105AD800E7D5B4F8A830022BE3D1802204F1AC0159
:105AE80038460FF004FF0028DBD0182306B13560D4
:105AF800903340461C440FF066FF2046BDE8F8830B
:105B08000023F3E778120024D81200247FB50D464D
:105B180001900FF037FF03A90198FFF733FB002826
:105B280007DA0024019848300FF04DFF204604B0F2
:105B380070BD2B78FF2BF4D101A92846FFF79AFFF7
:105B48000028EED1039890F8A44014F0010404D082
:105B580090F8BC30DB07E4D40124182329465C43C1
:105B6800031904F19406903493F8A420304442F0C9
:105B7800010283F8A4200222A3F8902010220FF03B
:105B880076F8039A102301993244034800F0E8FE9E
:105B9800039B1C44C6E700BF030060E02DE9F04703
:105BA800074686B00D46924698460FF0EBFE01A9CF
:105BB8003846FFF7E7FA002808DA002407F148001A
:105BC8000FF001FF204606B0BDE8F087BC68002C46
:105BD80056D1019E002EF0D096F8E5309907C3F310
:105BE800400C05D596F80D319A07E6D44FF0010C14
:105BF800282404FB0CF4331904F1C00993F8E520B8
:105C080083F8E4A005F1100A42F00202C3F8E0703C
:105C180083F8E52002AB1A462868083555F8041CB5
:105C28009E465545AEE803007346F5D106EB0903D9
:105C380015460DF1180E10332A46083303CA72456B
:105C480043F8080C43F8041C1546F5D12823D03432
:105C5800019A394603FB0C6608F1010322441A48ED
:105C6800D3F1000848EB030896F8E53068F3000321
:105C780086F8E530102300F073FE019C4C449DE744
:105C880094F8E5309E0709D504F1D00128460FF0B5
:105C980052FE18B194F8E430534512D094F80D31FF
:105CA800980796D504F1F80128460FF044FE00281D
:105CB8008FD094F80C3153458BD12823C0331C4422
:105CC8007CE70023FAE700BF050060E02DE9F84310
:105CD80006460F461C4CDFF874904C4501D3002053
:105CE8002FE01EB133680BB1A34219D1204604F14D
