:020000040800F2
:10000000C0100024E9130008C32E0008BD13000827
:10001000BD130008BD130008BD1300080000000058
:100020000000000000000000000000004D1000086B
:10003000BD13000800000000F90F0008B11F000800
:10004000F1100008F1100008F1100008F11000088C
:10005000F1100008F1100008F1100008F11000087C
:10006000F1100008F1100008F1100008F11000086C
:10007000F1100008F1100008F1100008F11000085C
:1002980053B94AB9002908BF00281CBF4FF0FF31E5
:1002A8004FF0FF3000F074B9ADF1080C6DE904CEE1
:1002B80000F006F8DDF804E0DDE9022304B0704739
:1002C8002DE9F047089E0D4604468846002B4DD17F
:1002D8008A42944668D9B2FA82F252B101FA02F31C
:1002E800C2F1200120FA01F10CFA02FC41EA0308EC
:1002F80094404FEA1C45210CB8FBF5FE1FFA8CF719
:1003080005FB1E8341EA03430EFB07F199420BD913
:100318001CEB03030EF1FF3080F01E81994240F27E
:100328001B81AEF1020E63445B1AA4B2B3FBF5F075
:1003380005FB103344EA034400FB07F7A7420AD938
:100348001CEB040400F1FF3380F00881A74240F25F
:10035800058164440238E41B40EA0E4000211EB1C6
:10036800D4400023C6E90043BDE8F0878B4208D992
:10037800002E00F0EE800021C6E900050846BDE821
:10038800F087B3FA83F100294AD1AB4202D3824203
:1003980000F2F980841A65EB030301209846002EC9
:1003A800E2D0C6E90048DFE702B9FFDEB2FA82F21E
:1003B800002A40F09180A1EB0C054FEA1C471FFA78
:1003C8008CFE0121B5FBF7F307FB1350250C45EA1A
:1003D80000450EFB03F0A84208D91CEB050503F104
:1003E800FF3802D2A84200F2CB8043462D1AA4B2AD
:1003F800B5FBF7F007FB105544EA05440EFB00FE79
:10040800A64508D91CEB040400F1FF3502D2A64525
:1004180000F2BB802846A4EB0E0440EA03409EE7A6
:10042800C1F120078B4022FA07FC4CEA030C20FAA2
:1004380007F405FA01F31C43FD404FEA1C4900FA92
:1004480001F3B5FBF9F8200C1FFA8CFE09FB1855CF
:1004580040EA054508FB0EF0A84202FA01F20BD962
:100468001CEB050508F1FF3A80F08880A84240F2AD
:100478008580A8F1020865442D1AA4B2B5FBF9F0ED
:1004880009FB105544EA054500FB0EFEAE4508D9A8
:100498001CEB050500F1FF346CD2AE456AD9023871
:1004A800654440EA0840A0FB0294A5EB0E05A5426E
:1004B800C846A64656D353D05EB1B3EB080265EBE7
:1004C8000E0505FA07F722FA01F3CD401F43C6E9E6
:1004D80000750021BDE8F087C2F1200320FA03F17E
:1004E8000CFA02FC25FA03F395400D434FEA1C472A
:1004F8001FFA8CFEB3FBF7F107FB11302B0C43EA14
:10050800004301FB0EF0984204FA02F408D91CEBF0
:10051800030301F1FF382FD298422DD902396344E1
:100528001B1AADB2B3FBF7F007FB103345EA0345DE
:1005380000FB0EF3AB4208D91CEB050500F1FF38B0
:1005480016D2AB4214D902386544ED1A40EA01418B
:1005580038E73146304607E78646E5E61846FAE6C4
:100568004B45A9D2B9EB020864EB0C0E0138A3E79E
:100578004046EAE7204694E74146D1E7D0467BE784
:10058800023B654432E7084609E76444023842E71B
:10059800704700BF38B5084802F00FFC074D00212E
:1005A80028464C1C02F009FC002142F2107002F0AF
:1005B8001DFA2146F4E700BF024000081F4000086A
:1005C800064C074808B502F0F8FB204602F0F5FB98
:1005D80000214CF2503002F009FAF6E742400008D8
:1005E8003040000810B50F4988B00F4802F0E5FB0D
:1005F8000022002300240D490D480094CDE906236C
:100608006FF008034FF48062CDE90334CDE901446B
:10061800084B01F023FF084902F08AFF204608B082
:1006280010BD00BF4F4000085D4000084004002492
:10063800000100249D0500086E400008014B1B685E
:10064800184700BF00000024014B1860704700BF26
:100658000000002407B50B4600210246034800911C
:1006680000F006F803B05DF804FB00BF450600087B
:100678002DE9F04F8B4691B092461C46002502901A
:100688009AF8000008B9284664E325280AF101070A
:1006980007D05946029B98470028C0F25B83013572
:1006A80012E2182200210AA802F020FC9AF8013070
:1006B800252B78D000221046964694461646394691
:1006C80017F8013B2B2B00F09D8000F29480202B23
:1006D80000F09B80232B00F09B802EB19DF83060AA
:1006E80046F004068DF83060BCF1000F05D09DF887
:1006F800306046F008068DF83060BEF1000F05D076
:100708009DF8306046F010068DF8306028B19DF8ED
:10071800300040F020008DF830002AB19DF83020DC
:1007280042F040028DF830209DF8302002F044005D
:10073800442803D16FF386128DF830209DF83020BD
:100748002A2B42F080028DF830207BD19DF8312091
:100758004B1C42F001028DF831201A782E2A9DF8A0
:1007680031200CBF0121002161F341028DF83120B5
:1007780074D15A782A2A6AD0013300210A261846E9
:1007880010F8012BA2F13007092F40F28E809DF856
:1007980030200E91C2F3400040EAD17161F341026A
:1007A8008DF830205AE00AF102078DF833309DF8B1
:1007B8003130D90740F1498154F8049BB9F1000F51
:1007C80007DA9DF83020C9F1000942F004028DF8DB
:1007D80030205A0740F1428154F8048BB8F1000FD9
:1007E80080F241819DF831306FF341038DF831304B
:1007F8004FF0FF3837E12D2B0CD0302B7FF46DAF45
:1008080001225CE74FF0010C59E74FF0010E56E763
:10081800012054E7012652E70CFB02023346303A26
:100828001E4616F8010BA0F13007092FF4D999429A
:1008380093D09DF830100D92D20F62F341018DF8DC
:1008480030108AE70B4600224FF00A0CE8E79DF8C3
:100858003120023342F004028DF831201F4617F888
:10086800012B6C2A41D025D8682A2BD06A2A46D079
:100878004C2A4CD01F4617F8012B9DF83130782AA6
:100888008DF8332000F2D980572A4DD8412A03D059
:10089800453A022A00F2D1809DF83230042262F3F0
:1008A80002038DF8323001239EE006FB0121034646
:1008B800303964E7742A26D07A2ADBD19DF83130A2
:1008C80006220DE05A78682A9DF8312006D10121C8
:1008D80061F3C6029F1C8DF83120CCE71346022233
:1008E80062F3C6038DF83130C5E75A786C2A9DF853
:1008F800312001D10421EBE713460322F0E79DF8EC
:1009080031300522ECE79DF831300722E8E7BDF8E1
:10091800303023F4F04323F0020343F4804343F0E0
:100928000203ADF83030A6E7A2F15801202900F201
:10093800848001A050F821F0050A0008430A000845
:10094800430A0008430A0008430A0008430A00084B
:10095800430A0008430A0008430A0008A1080008DF
:10096800430A0008050A0008C5090008A10800088C
:10097800A1080008A1080008430A0008C5090008E2
:10098800430A0008430A0008430A0008430A00080B
:100998000D0A0008050A0008290A0008430A000889
:1009A800430A0008290A0008430A0008050A000843
:1009B800430A0008430A0008050A00089DF8321097
:1009C800012003F0780360F30201402B8DF8321008
:1009D80002BF9DF8301041F001018DF83010632AF4
:1009E80031D1003B18BF01239DF83020C2F34001EC
:1009F8000B4363F341028DF83020D8E69DF832109E
:100A08000220DEE703F078039DF832200321A3F1EA
:100A1800400061F3020243428DF832204341E3E78C
:100A28009DF83220032113F0780F61F3020214BFFE
:100A3800012300238DF83220D6E79DF8303043F0AB
:100A480001038DF830300023CEE79DF93020002ACD
:100A5800B4BFDDF834904FF0FF39BAE69B077FF555
:100A6800C7AEDDF8388000239DF83110CDE90D338D
:100A78009DF83230C1F3C30103F00703012B35D1D0
:100A8800CB1E042B22D8DFE803F00309092121003B
:100A980054F8043BDA17CDE90A3206E0073424F0AB
:100AA8000704F4E80223CDE90A239DF8303013F057
:100AB800030659D03B4652465946029802F0DAF9E5
:100AC8000028C0F247810544BA46D9E554F8043BEA
:100AD80001294FEAE372CDE90A3202D19DF92830A3
:100AE800D8E70229E1D1BDF92830D3E7022B29D173
:100AF800CB1E042B13D8DFE803F0030A0A121200F6
:100B080022680023201D0A920B930446CDE7E01DBE
:100B180020F00700F0E80223CDE90A23F5E754F8AE
:100B2800043B01290A934FF000030B9305D19DF86C
:100B380028300A9300230B93B7E70229B5D1BDF8F3
:100B48002830F6E7042B09D1E31D23F0070303F14E
:100B58000804D3E90023CDE90A23A6E7032B04BF41
:100B680054F8043B0A93A0E79DF833007828ABD8E3
:100B7800622822D825283FF48CAD5828A4D10DF13D
:100B880026030CAA009304ABDDE90A0102F02CF954
:100B98008246B8F1000F0DF126000CDB9DF83020DD
:100BA800A0EB0A036FF3861298458DF8302002D91E
:100BB800A8EB03030D9380463EE06338152883D8DD
:100BC80001A252F820F000BF510C0008B50C000833
:100BD800D10A0008D10A0008D10A0008D10A000881
:100BE800B50C0008D10A0008D10A0008D10A00088B
:100BF800D10A0008110D0008DF0C0008E30C0008FA
:100C0800D10A0008D10A0008290C0008D10A0008F6
:100C1800DF0C0008D10A0008D10A0008DF0C000820
:100C2800B8F1000FDDF828A00ADB4146504602F073
:100C380069F90AEB00080026BAF1000F0CD143E766
:100C4800504602F041F9F4E70A9B00260DF1100A1C
:100C58000DF111088DF81030A8EB0A0306B1013325
:100C68009DF83220D00669D5023352060D9948BF47
:100C78000E9A0B4448BF9B18B9F1000F77DD9DF819
:100C88003020A9EB0309C2F38003039353076ED402
:100C9800500662D546B159463046029B984700280F
:100CA80058DB039B01351E46302357E01E0710D43E
:100CB80013F0100618BF2026DDE90A23002BBFF623
:100CC8005EAF52424FF02D0663EB4303CDE90A2392
:100CD80055E72B26F0E7002651E70A9840B30DF1B7
:100CE80026030CAA00210026009304AB02F07CF82E
:100CF800BDF83230824603F0EF0343F4F04343F08B
:100D08001003ADF8323044E70A9B07293FF6DCAE02
:100D1800DFE801F00C04060C08080C0C1D70D3E683
:100D28001D80D1E6EA17C3E90052CDE61D60CBE687
:100D3800DFF8C4A006460AF105088DE7110748BF89
:100D4800013392E7184603935946029B98470028B7
:100D5800039B04DA11B0BDE8F08F20234D444A46C6
:100D6800A5EB090109F1FF39002AEBDC0D4636B184
:100D780059463046029B98470028EBDB01359DF821
:100D88003230D90601D41A0706D559463020029BBD
:100D980098470028DEDB01359DF83230DB0607D5A1
:100DA80059469DF83300029B98470028D2DB01354D
:100DB8000D9E2E44731B002B16DC434652465946A3
:100DC800029802F057F80028C4DB0544A944A9EBAF
:100DD8000503002B7FF778AE59462020029B9847E1
:100DE8000028B7DB0135F2E759463020029B9847C7
:100DF8000028AFDB0135DDE793400008F0B54FF080
:100E08001003EFF3118083F31288BFF36F8F344B15
:100E18005A6912F4003211D1BFF34F8FBFF36F8FAD
:100E2800C3F85022BFF34F8FBFF36F8F5A6942F454
:100E380000325A61BFF34F8FBFF36F8F284A53694F
:100E4800D90327D4536913F4803323D1C2F88430EB
:100E5800BFF34F8FD2F8803043F6E075C3F3C9046F
:100E6800C3F34E335B0103EA0507214647EA81765F
:100E78000139C2F86062F9D2203B13F1200FF2D198
:100E8800BFF34F8F536943F480335361BFF34F8FE0
:100E9800BFF36F8F80F31188BFF36F8F114B124A26
:100EA8001A60124BDA6822F0070242F00202DA6096
:100EB8009A6942F440429A619A699204FCD50C4BB3
:100EC8001A6841F20303B3EB124F06D1094AD2F86C
:100ED800083143F00103C2F808310020F0BD00BF1B
:100EE80000ED00E0340000240090D00300480258D0
:100EF8000010005C00800051014910220A60704710
:100F080010ED00E072B6404080F31188BFF36F8F98
:100F1800BFF34F8F30BF62B6BFF36F8F704700BF0C
:100F280003B2002B08DB012200F01F005B0902FA64
:100F380000F0024A42F82300704700BF00E100E0D9
:100F480003B20131002B4FEA0111C9B206DB03F1EC
:100F5800604303F5614383F80013704700F00F0006
:100F6800014B1954704700BF14ED00E030BFFFF784
:100F7800FDBF00BF0F4A08B522F07F020E4B9A60F2
:100F8800BFF34F8FBFF36F8FD3F8882022F470021E
:100F9800C3F88820EFF3148323F0040383F3148841
:100FA800BFF36F8F01F064F901F09EFD00F00CFAB9
:100FB80001F0BAF90000000800ED00E0094A0A490A
:100FC800936809685867996708494B6843F08053E4
:100FD8004B60002383F31188BFF36F8F9368986F7A
:100FE800704700BFF0030024E03F000800ED00E078
:100FF80012498A684FF030001044EFF3098C80E8FA
:10100800F01F102080F31288BFF36F8F0C4F4FF042
:1010180000664A698A603E60506F0023536780F318
:10102800118804B5104600F013FABDE8044002F137
:10103800300090E8F01F8CF309887047F003002413
:1010480004ED00E01EF0040F0CBFEFF30880EFF38F
:101058000980816911F8021C0229FFD001B501F04D
:1010680024FF01BD42F8203C203A009B0749536009
:10107800019B21F001019360029B9161D3604FF0C5
:101088008073D3610023026543677047DD2D000834
:10109800094A0346906870B113F1160F406E05D0E7
:1010A800A0F140029A4205D8834203D2814228BF68
:1010B8000020704700207047F003002408B5094B52
:1010C8000D461446986000F0C3F9204685F3098858
:1010D800002163B681F31188BFF36F8F00220023CC
:1010E80001F078FEF003002401B5EFF30580A0F1CC
:1010F80010004FEAC0000449014409C99847BDE8F7
:1011080001400249084700005C380008191100082E
:10111800044B99685869884203D003494FF08052BC
:101128000A607047F003002404ED00E0264B70B518
:1011380015469A6A064612F0100F9A6A14BF1124CF
:10114800102412F0080F9A6A18BF122492070AD5C1
:10115800586B9A6A140634D519B19A6A22F080023B
:101168009A62132401E06FF01500174B9A6A12F087
:10117800010F9A6A18BF142412F0200F9A6A18BF38
:101188001524D20602D49B6A9B070AD50E4B5B68CE
:10119800190506D53146FFF77BFF10B180F30988A2
:1011A8000224094B9A6A920603D55A6A22F400521D
:1011B8005A629A6A204642F0FF029A6200232B7014
:1011C80070BD6FF01500CCE700ED00E0134B9A6A94
:1011D80012F0007F9A6A14BF1E201D2012F0807F33
:1011E8009A6A18BF1F2012F4002F9A6A18BF21208C
:1011F80012F4802F9A6A18BF222012F4003F9A6ACC
:1012080018BF232012F4803F9A6A6FEA024218BF7F
:1012180024206FEA12429A62704700BF00ED00E096
:10122800184B024610B5986A9C6A10F4805F14BF88
:101238001720162014F4006F9C6A18BF1820A40504
:1012480009D5986B986A000404D51AB19A6A22F4F1
:1012580000429A6219200B4B9A6A12F4806F9A6ABC
:1012680018BF1A20D2050BD49A6A12F4005F18BF6F
:101278001C209A6A42F47F429A6200230B7010BDC8
:101288001B20F6E700ED00E0454B70B55B688AB0BF
:101298000D460026C3F3080386F31188BFF36F8F4A
:1012A80002F07F41B1F17F4F11D102F00C01082902
:1012B8000DD0140701D4054601260022033B8DF802
:1012C8000720032B09D8DFE803F0045D615A35468F
:1012D800F3E7334BDA6A910701D5002428E0DA6A8C
:1012E800002AFADBDA6A5200F7D55A69A96942F48A
:1012F80080725A61BFF34F8FBFF36F8F5A6931F80D
:10130800021C22F480725A61BFF34F8FBFF36F8FB4
:101318004DF6027291420AD09A6AD2B202B30DF126
:10132800070201212846FFF701FF044600E02C6868
:101338009DF8073093B92022294602A801F0CBFD79
:10134800099B3EB3C3F3080222B96FEA53236FEA3D
:101358004323099302A9204601F0A5FD0AB070BDF8
:101368009A6A12F47F4F05D00DF107010120FFF7AB
:1013780057FFDAE79B6A1B0C1B04002BADD0FFF765
:1013880025FFD2E70DF107020021CBE70DF1070198
:101398000020ECE723F4FF7323F00103D9E700BF33
:1013A80000ED00E0024A536943F0100353617047AF
:1013B80000ED00E0EFF30880EFF3098101B5724614
:1013C800FFF762FF01BD00BF002304481021C218C7
:1013D8000133962B82F80013F9D1704700E100E041
:1013E800102080F3118808484FF40461401880F3F6
:1013F8000988EFF314800221084380F31488BFF3AF
:101408006F8FFFF7B7FD000080120024084B9B6820
:1014180083420BD1EFF3058343B1064B5A6842F080
:1014280080525A605A6A22F400425A6201F0FCBAA9
:10143800F003002400ED00E0024B0121024A0348BA
:1014480000F06EB80000082400000024383E0008B0
:10145800426E4021044B403A18461A60034AC3E9D9
:101468000112012100F066B8A002002400000B154B
:10147800F0B500261E4F8E4201DB1046F0BD4468D1
:101488009CB353B104F1FF3C14EA0C0F18D11F2C84
:1014980016D905681CEA050F12D1202CD2B20568AE
:1014A800D0F808C00FD9B4F1004F0ED8013CB4FAF7
:1014B80084F4C4F11F0464000F2A4CEA040406D91A
:1014C8006FF01502D9E70824F6E73E24F4E725F083
:1014D8001F05C7F8982044F001041543013245F070
:1014E8001005C7F89C50C7F8A04001360C30C2E779
:1014F80000ED00E0044B0522C3F89420BFF34F8FA2
:10150800BFF36F8F704700BF00ED00E0BFF35F8F40
:10151800024B0022C3F89420704700BF00ED00E0A2
:1015280010B5034C01232278FFF7A2FF207010BDED
:1015380020040024094A08B500231278FFF798FF11
:1015480010F1160F02D0064A0F2800DD08BDC2F8B8
:1015580098000130C2F8A030F6E700BF200400244C
:1015680000ED00E014490868102810B521D8FFF7ED
:10157800CDFF124C49680022904201F10C0105D1BF
:101588000F4B18700020FFF7B5FF10BDC4F8982066
:1015980051F80C3C23F01F031343013243F01003AE
:1015A800C4F89C3051F8043C43F00103C4F8A0305F
:1015B800E2E74FF0FF30E8E7F43D000800ED00E017
:1015C80020040024014B1860704700BF0400002469
:1015D8002DE9F041054600244FF001084FF0B046D0
:1015E8000E4F2B7853FA84F01F280FDC08FA00F30B
:1015F800D6F8882033EA020208D1C6F8883057F8AE
:1016080030301BB107EBC0025168984701346A7843
:10161800E3B29A42E5D2BDE8F08100BFAC020024F3
:10162800044B03EB40000023013320F8022B9942BE
:10163800FADC704740000024084B02464FF0B041E6
:1016480010B433F910000123D1F8804093402343AC
:10165800C1F8803010BCFFF763BC00BF4000002415
:101668000B4B30B5044653F83000884204D103EBE5
:10167800C4056D68954206D038B943F8341003EBB9
:10168800C4035A6030BD0020FCE76FF00F00F9E793
:10169800AC020024034B002243F8302003EBC003C4
:1016A8005A607047AC020024044B05489B6A03F05B
:1016B8000303022B18BF0020704700BF00440258E4
:1016C80000127A0030B50B68102B24D81348D84084
:1016D800C04310F001001ED14A68D3B2C2F34235AC
:1016E800C2F3042203F1B04305FA02F203F5113301
:1016F8001C6824EA02021A604968CBB2C1F30242AC
:10170800C1F3042103F1B0438A4003F511331C6887
:1017180022431A6030BD6FF08500FBE70E340100EC
:1017280008B5084B1A6902F03802102A06D0182AA0
:1017380006D1FFF7B9FF5043400808BD0248FCE74F
:101748000020FAE70044025800127A000B68102BB8
:1017580010B514462AD813B96FF085003EE0013B56
:101768000F2BF9D801A252F823F000BFF117000897
:10177800FD170008F1170008611700086117000835
:101788006117000861170008611700086117000851
:10179800DD170008E1170008E7170008ED17000833
:1017A8006117000861170008D5170008D42B08D066
:1017B800D83B1C2BD0D8012202FA03F313F0113FB7
:1017C800CAD00F4B1B682360002007E0FFF7A8FF73
:1017D8002060F9E70B4BF6E70020206010BD4FF4BE
:1017E800FA43F0E7084BEEE7FFF75EFF182358438C
:1017F8004008EDE7FFF758FF182358438008E7E74C
:101808003400002400127A00006CDC02714B13B51E
:10181800D3F8E02042F00072C3F8E020D3F8E020CB
:1018280002F000720192019A1A6842F480221A604A
:101838001A6842F480321A601A689403FCD55A6F09
:1018480042F001025A67634B5A6F9007FCD51A6839
:1018580042F480521A601A689104FCD51A6902F0A1
:101868003802182A17D11A68520707D41A6842F0A2
:1018780001021A60574A13685C07FCD5554B1A6970
:1018880022F007021A611A6912F0380FFBD19A691F
:1018980022F00F029A614F4B1A6822F080721A6088
:1018A8009A6A22F0030242F002029A629A6A22F4C9
:1018B8007C7242F010029A62DA6A22F00C0242F05C
:1018C8000802DA62DA6A22F00202DA621A6B22F499
:1018D800FF7222F0010242F017021A63DA6A22F05C
:1018E8000102DA621A6B22F47E4242F400721A6331
:1018F800DA6A42F48032DA621A6B22F4FE0242F4A7
:1019080040321A63DA6A42F40032DA621A6B22F061
:10191800FE4242F080721A63DA6A42F48022DA6286
:101928001A6842F080721A601A689001FCD52A4B36
:10193800DA6822F0070242F00202DA609A6942F499
:1019480040429A619A699104FCD5FFF7E9FE044682
:101958002248844201D200F0D7FB1E4B9A6922F438
:1019680070629A619A6922F00F029A61DA6922F02C
:101978007002DA61DA6922F4E062DA619A6922F0C7
:1019880070029A611A6A22F070021A621A6922F0C9
:10199800070242F003021A611A6902F03802182A93
:1019A800FAD10E48844201D300F0AEFB0A4BDA6844
:1019B80022F0070242F00202DA609A6942F44042D9
:1019C8009A619A699204FCD5054B0020034A1A6073
:1019D80002B010BD004402580048025800D8B805AB
:1019E8003400002408B5074801F06CFD38B10648FA
:1019F800FFF7E8FD0448FEF727FE002008BD6FF05A
:101A08001200FBE744380008151A00080A2838B500
:101A18000446074D04D1AB680D2128465B689847FA
:101A2800AB68E1B202485B689847204638BD00BF02
:101A38004438000838B5036904465860084D2846FC
:101A480001F040FD40B161682846AB680C311B6865
:101A5800984700EAE07038BD6FF01200FBE700BF5E
:101A6800F4360008F7B50C4611461E464768B1F52E
:101A7800001F026927D104F003023B490432930096
:101A88000F229A4042EA940202F00303023351F80B
:101A98002310130C93FAA3F3B3FA83F301EA124267
:101AA80003F01F0322FA03F3BA689A4209D12046C9
:101AB80001F07AFA2046FFF7EDFD0021204601F0FB
:101AC80081FA002543E0B1F5800F47D02749204629
:101AD800FFF7C6FD0546002843D1254A6B46BF6877
:101AE80092E8030083E803002248194682681268D6
:101AF8009047D8B904F0030304339A000F239340A6
:101B080043EA940303F00302190C91FAA1F192003D
:101B1800B1FA81F102F1B04201F01F01D2F80804D4
:101B28008F4020EA13431F43C2F80874B6F1806F50
:101B380010D0B6F1C06F0FD0B6F1007F14BF0021EE
:101B48000221204601F03EFA2046FFF775FD28469F
:101B580003B0F0BD0121F4E70321F2E76FF085053A
:101B6800F5E76FF00F05F2E7000400583B32000874
:101B7800EC3D0008F43600082DE9F047044600EB78
:101B8800C10600251C4FB44201D1002014E0206892
:101B9800C30600F01F0911D4656845F02005C0F39D
:101BA800471AC0F343200A2823D857F82080B8F1F1
:101BB800000F0DD16FF01200BDE8F087B9F1100FDA
:101BC80004D0B9F1110FEAD16568E8E73025E6E7F6
:101BD800404601F077FC0028ECD04B462A460AF034
:101BE8000F01404601F038FB002804F10804CADA66
:101BF800E2E76FF01500DFE7443F0008F7B5064657
:101C0800446807696948786001F05CFC20B96FF0A6
:101C18001205284603B0F0BD7868616883681B68C0
:101C2800984705460028F4D1014601AAE06901F069
:101C38002BFB0028C0F2B880019B2A461979186846
:101C4800FFF79AFF0028C0F2AF802268136823F0DC
:101C580001031360B86801F035FC0028D7D0D7E934
:101C680002018368DB6803B19847216851E8003FA7
:101C780043F00C0341E80032002AF7D12369022B14
:101C880000F08A80012B0ABF4FF4805000204FF4E7
:101C9800C062216802430B6823F0805323F4B053D9
:101CA80013430B604B6823F440534B60237B2BB1E9
:101CB80073681A68936843F44073936039683046D0
:101CC80001F062FB237D23B12268936843F0080387
:101CD8009360637D23B12268536843F400435360E3
:101CE800A37D23B12268536843F480335360E37DB6
:101CF80023B12268536843F400335360237E002BDA
:101D08003DD023682A4A93421ED0A2F54C42934202
:101D18001AD002F58062934216D002F5806293428F
:101D280012D002F5806293420ED002F544429342EB
:101D38000AD0A2F51C42934206D002F58062934273
:101D480002D01C4A93422CD19A6842F480429A608D
:101D58002268617E136823F0787343EA4153136065
:101D68002268A17E136823F4F81343EA0143136041
:101D7800E37E23B12268936843F4004393602268AA
:101D8800136843F0010313602368DA699102FCD5F4
:101D9800DA695202FCD53CE74FF480504FF4806278
:101DA80077E76FF0150534E7054632E7F4360008A3
:101DB80000100140000C00582DE9F0470B790C4643
:101DC8004568012B06691CD0022B0CBF4FF4806EAE
:101DD8004FF0000E94F80590A179B9F1020F96BF63
:101DE800524A4FF4005232F8192002290CD0042923
:101DF80000F09680002B14BF4FF4805C4FF0000C6D
:101E080008E04FF4C06EE5E7002B0CBF4FF0805C94
:101E18004FF0000C94F80780A3F1030AB8F1010F02
:101E280014BF00274FF44077BAF1010F7BD90BB1EB
:101E3800042978D019F0FD0F75D0012973D9042928
:101E480071D02B68B8F1000F24D039498B421ED0CD
:101E5800A1F54C418B421AD001F580618B4216D016
:101E680001F580618B4212D001F580618B420ED062
:101E780001F544418B420AD0A1F51C418B4206D0A2
:101E880001F580618B4202D02A498B424BD1B8F1CF
:101E9800010F48D1196821F00101196041680968EA
:101EA8000B6803F4C0639E4505D00B6823F4C06338
:101EB80043EA0E030B6043681B68596801F44051FC
:101EC8008A4204D0596821F440511143596043684B
:101ED8001B681A6802F01022944505D01A6822F08F
:101EE800102242EA0C021A6043681A68936803F4E5
:101EF80040739F4204D0936823F440733B4393603C
:101F080021683368994203D001F03EFA23683360B0
:101F18002A680020136843F001031360BDE8F087C6
:101F28004FF4805C76E76FF08500F7E7FC3F000828
:101F380000100140000C00584FF0E02310B59A69DA
:101F48001969986911F4803F084B094901D1824207
:101F580006D21A680C6822441A604FF0E02212690F
:101F68001B680A681344181A10BD00BFE803002450
:101F7800E4030024094B1022002083F8232042F2B6
:101F88007F52074B1A60074B18604FF0E0235A61E5
:101F980098611A6942F007021A61704700ED00E083
:101FA800E4030024E803002408B5FFF7C5FF0C4B41
:101FB8000C4A1868116808444FF416511060002242
:101FC8001A60094A1368C01AB0FBF1F001FB00332C
:101FD800136000F065FEBDE80840FFF799B800BF40
:101FE800E8030024E0030024DC030024F8B5324CA5
:101FF80059B1421C09D14FF0E022136923F00103C3
:1020080013614FF07F432360F8BD431C266823D03B
:10201800012824DD40F2D263984222DC471E4FF0AB
:102028001003EFF3118583F31288BFF36F8FFFF767
:1020380083FF4FF0E02321490022D3F818C00B6832
:1020480018441F4B1A601F4B08601A68831A0AD578
:102058004FF48063236019E040F2D260DEE7002786
:10206800DDE71F46DBE74FF4165E121A0EFB073357
:1020780003F515533F33B3FBFEF30EFB0323B3F510
:10208800806FE5D9104A9342E4D922604FF0E022EC
:1020980024689369013C9C4554614FF0000438BFA3
:1020A800B4449461ACEB030C6044086085F3118878
:1020B800BFF36F8FA8E700BFE4030024E003002408
:1020C800E8030024DC03002400C3FF0010B54FF030
:1020D8001003EFF3118483F31288BFF36F8FFFF7B8
:1020E8002BFF074B074A1B6812689B1A034484F3AB
:1020F8001188BFF36F8F4FF41650B3FBF0F010BD8B
:10210800E0030024DC03002420B32A4A936903F483
:102118004043B3F5404F1FD1274B284A034493420D
:1021280042D9274B274A034493423FD9264B98422A
:1021380010D8002325490A6822F00F021A430A60C2
:102148000A6802F00F02934232D00A6802F00F02C6
:1021580093422DD001207047936903F44043B3F5AF
:10216800004F0ED11A4A1B4B02449A421AD91A4AF6
:1021780002449A4218D9194A02449A4216D901339C
:10218800D5E7174A174B02449A4209D9164A02441E
:102198009A4207D9154A02449A4205D9144AEBE7EC
:1021A8000423C7E70323C5E70223C3E70123C1E7E5
:1021B8000020704700480258FFC4A7F7FFE0F50564
:1021C8007FE2D3FB7F1D2C04801D2C0400200052CD
:1021D800BF4C2AF6BF3B47037F8871F93FC4B8FC60
:1021E800FF6A45F53FA5AE023F10F4F77FB5A2FAA6
:1021F800BF5A51FD104B70B553F82040013053F8C9
:102208002060A64200D870BDD4E9003595B153B11D
:102218002846984738B10028EB68B8BF4042FF28E5
:10222800A8BFFF201870EA68537843F00103537081
:102238000834E6E79847FBE7E43F0008012203205B
:1022480008B5094B1A70FFF7D5FF00F0ADFD042063
:10225800FFF7D0FF00F02EF9FEF7C4F9034A137B0D
:1022680023F00103137308BD210400240002002495
:1022780006480021064A08B5121A01F055F9054822
:10228800054A0021121A01F04FF908BD8000002408
:1022980024040024000000200000002070B5002362
:1022A80086B001221A4E019304461A4D06EBC01659
:1022B8001949CDE904230F22CDE9023214234FF442
:1022C800A07203FB00554FF4C070144B00FB0411BF
:1022D8003046009500F090F8737B114823F0040312
:1022E8002C74EE6073734FF4046303FB04041C4402
:1022F8000C4B6C60BFF35B8F53E8002F013243E84F
:1023080000210029F8D1BFF35B8F06B070BD00BF74
:1023180080010024F0030024001100243F35000848
:1023280080120024EC03002480B50020A6B0FFF73B
:1023380061FF2A4B83F30888294D0024F023294E96
:10234800294F85F82230EC772C766C76AC7685F8B8
:1023580020406B6A43F4E0236B62FFF723F8FEF733
:10236800CBFD4FF0FF33AB62EB62FFF7FBF81F4D7D
:10237800FFF762F840F201132294ADF8243006AB5F
:10238800B360CDE91F4401F09CF80120FFF732FF4C
:102398000220FFF72FFF00F099FA154B75614FF4F3
:1023A800806205930123134928460094CDE903432D
:1023B800CDE901443B4600F01FF86A7B06462846F3
:1023C80022F004026A7301F0F0F82046FFF766FF76
:1023D8003A4631462846FEF771FE00BFC01A00246F
:1023E80000ED00E0F003002445220008000200246C
:1023F800C9410008C00C00242DE9FF410E9E00F1E0
:1024080058050F46044606730426403746730D9E4A
:102418008673D61D0C9A26F00706C0E916550025C6
:1024280006F1400885608844C573C566C0E906554D
:10243800C0E9197602920B9A01920A9A00924246D2
:10244800FEF710FE044B65659B6803B11B6F4046A1
:10245800236704B0BDE8F081F0030024F0B500273D
:1024680087B004460597109F04970F9F03970E9F08
:1024780002970D9F01970C9FDDE912650097FFF702
:10248800BBFFB5F1FF3F08BFB6F1FF3F05D055EAE6
:10249800060305D1204600F095F9204607B0F0BDA7
:1024A80032462B46024904F1180000F087FBF4E796
:1024B80017360008F0B5214C87B0214D26462C343C
:1024C800AE420BD31D4C0A261E4F00F0A5F8AC42B5
:1024D80020D307B0BDE8F04000F0DCB954F8043C64
:1024E800059354F80C3C049354F8103C039354F8A7
:1024F800143C029354F8183C019354F81C3C54E9DA
:102508000B01009354E90923FFF776FF54F82C3C9C
:102518005E65D3E7626A531C09D022EAE27220683A
:1025280082FB062352EA030103D100F04BF92C3455
:10253800CDE73946183000F041FBF8E70C3D0008BC
:10254800383D000817360008C3897F2B12D80A4B7C
:102558001B6863B1094B90F90E201B689A4209DB8E
:10256800437BDB0606D1064BC31A18BF012303F0D1
:10257800010070470023FAE718040024140400241B
:1025880080010024044B0122C01A044BC010584398
:10259800034B1A54704700BF80020024ABAAAAAAB2
:1025A800220400240E4B70B51E7C05460D4B06EB2D
:1025B800460403EBC404204601F02DF80A4B002220
:1025C80028469A55FFF7C0FF48B1084B20460849EE
:1025D8001A68013ABDE87040D31700F0EFBA70BD31
:1025E800F00300248002002422040024180400249C
:1025F8008D25000849B9EFF3058030B9054B5A69B4
:102608009B689A4201D0FEF7D9BC81F31188BFF3C9
:102618006F8F7047F00300244FF01003EFF3118120
:1026280083F31288BFF36F8F044B9A68D37B013B07
:10263800D37381F31188BFF36F8F7047F0030024C1
:1026480038B502460C4800F0AAFF0C4D044600B904
:10265800EC68AB684AB95A7BD20606D1A26922B99E
:10266800DA897F2A01D96B6138BD9C4202D02046A5
:10267800FFF798FF6C61F7E708040024F0030024D3
:1026880070B590F90D200146437B002A04DA03F067
:102698007F03437300F05BFF4B7B164A63F07F03B5
:1026A80010464B7350F8183F83421CD0DBB1D669F3
:1026B80091F90E5093F90E40A5420FD0641B002CDF
:1026C8000CDD5868C1E90030016059609068431A10
:1026D8005842BDE870405841FFF7B2BFB34202D03C
:1026E8001B68002BE6D1D369C1E900031960D161E9
:1026F800ECE700BFF003002438B54FF01003EFF308
:10270800118583F31288BFF36F8F104B104A9C68B2
:102718001068A04206D1FFF745FF85F31188BFF383
:102728006F8F38BD00211B7C11600A4AD35C002BD7
:10273800F3D02046FFF708FF0028EED0637BDB06C6
:1027480002D12046FFF79CFF2046E4E7F00300246F
:10275800100400242204002470B490F90D20437B57
:10276800002A2BDBDA0629D182693ABB144A63F0C6
:102778007F031146437351F8183F8B4218D0BBB101
:10278800D66990F90E5093F90E40A5420BD0641B00
:10279800002C08DD5A68C0E900321060586000203B
:1027A80070BCFFF74DBF9E4202D01B68002BEAD1D8
:1027B800D369C0E900131860D061F0E770BC7047B6
:1027C800F003002410B54FF01002EFF3118482F3E8
:1027D8001288BFF36F8F427B510704D484F31188AA
:1027E800BFF36F8F10BD22F004024273FFF7B4FFEE
:1027F80021460248BDE81040FFF7FCBE2204002431
:1028080008B590F90D200146437B002A04DA03F04D
:102818007F03437300F09BFE044B9868431A5842A9
:102828005841BDE80840FFF70BBF00BFF003002484
:1028380070B50446183000F0EEFE4FF01003EFF3C9
:10284800118683F31288BFF36F8F94F90D20637B91
:10285800002A05DA03F07F032046637300F077FE51
:10286800637B0B4D43F01003A8686373031B584246
:102878005841FFF7E5FE86F31188BFF36F8FAB6809
:10288800A34203D1BDE8704000F07FBE70BD00BF19
:10289800F003002410B54FF01003EFF3118483F315
:1028A8001288BFF36F8F084B00209A68D37B0133DF
:1028B800D373FFF7C5FE84F31188BFF36F8FBDE8AC
:1028C800104000F062BE00BFF0030024024B03F189
:1028D8001802C3E906227047F0030024F8B54FF048
:1028E8001003EFF3118583F31288BFF36F8F1A4932
:1028F8008868437B03F07F03437300F028FE8B68EE
:1029080008465A7B62F07F025A7350F8182F8242A9
:102918001CD0DAB1CF6993F90E6092F90E40A64245
:102928000FD0A41B002C0CDD5168C3E900210B60FB
:1029380053600120FFF784FE2846BDE8F840FEF703
:102948003DBBBA4202D01268002AE6D1CA69C3E97F
:1029580000021360CB61ECE7F003002450EA0103A6
:102968002DE9F04105460E4603D1FFF7B7FF0020D9
:1029780033E06FF001044FF0FF33241A63EB0103D7
:10298800012C73F1000302DA00F05BFE2C184FF003
:102998001003EFF3118883F31288BFF36F8F104F82
:1029A800104BB8681860FFF72BFFB8682A460E4925
:1029B8003346183000F002F9BA684046537B43F0BA
:1029C80010035373FEF7FAFA00F03BFE201A63EB8C
:1029D8000303012873F10003C9DBBDE8F08100BFE0
:1029E800F00300241004002417360008B1F1FF3F5B
:1029F80008BFB0F1FF3F08B506D1074B9868FFF74D
:102A080017FF4FF0FF3008BDFFF7A8FF0A22002389
:102A1800C117FDF73DFCF6E7F0030024014B986869
:102A2800704700BFF00300242DE9F04104464FF041
:102A38001003EFF3118683F31288BFF36F8F037BC4
:102A4800D9070BD586F31188BFF36F8F404080F309
:102A580011884FF0040002DFBDE8F081437B1A07BC
:102A680004D586F31188BFF36F8FF5E723F02002B2
:102A780042F00801D20920D14173A36813B120465E
:102A880000F06DFD04F158074FF0000804F118003C
:102A980000F0C1FDA56DBD4200D0B5B90120FFF71A
:102AA800CFFD104B9B68A342DBD1EFF30583002BCE
:102AB800D7D13046FEF782FAD3E703F05F0343F03D
:102AC8000803437300F043FDD7E7284600F047FDAD
:102AD80005F1180000F09FFD2846C5F87880FFF73B
:102AE8003BFED7E7F003002409480A4A0A49121AAC
:102AF80008B500F01BFD094A09490A4800F016FD0F
:102B080009480A4A0A49121ABDE8084000F00EBDF1
:102B1800000000247E00002400420008000000009D
:102B280000420008000000240000002000000020EF
:102B38007E420008034B1B680BB9FFF7C7BA002099
:102B4800704700BF1C0400240D4B10B51C689C4244
:102B580008BF0024FFF7EEFF74B1D4E904321B1A52
:102B680062EBE070B3F1004F70F1000204DA002864
:102B7800ACBF1846002010BD6FF00040FBE700BF57
:102B88003800002430B570B10B4B5B6898420AD00E
:102B9800036843B1D3E90421D0E90445121941EB94
:102BA8000501C3E90421D0E9003213605A6000230B
:102BB800C0E9003330BD00BF38000024B3F1FF3F47
:102BC80008BFB2F1FF3FF8B504461F46154662D06C
:102BD80081604FF01003EFF3118683F31288BFF37F
:102BE8006F8F6FF001024FF0FF3C531B6CEB070334
:102BF800002B1BDB284BD3E90013521A6CEB0303A1
:102C0800551B63EB0703012D73F10002BCBF0125BF
:102C18000023C0E904532148D0E9003C834218D17D
:102C2800C4E9000CCCF80040446026E0FFF782FFBE
:102C3800013547F100072D1847EBE077C4E9045741
:102C4800E9E7521A65EB07059C45C4E90425E7D076
:102C58001B68002BE4D0D3E90417D4E904258A4281
:102C680075EB070EEDDA8A1A67EB0505C3E904254B
:102C78005A68C4E9003214605C600368834206D075
:102C88009C4204D1FFF760FF0021FFF7AFF986F3FC
:102C98001188BFF36F8FF8BD980200243800002414
:102CA8002DE9F84F4FF01003EFF3118883F31288E2
:102CB800BFF36F8FDFF8B0A0DFF8B0902C4DC9F8E4
:102CC8000000DAF80000504534D000260027D9F873
:102CD8000020D5E9001C68B34FEAE27ED0E904433E
:102CE800A2427EEB030B05DAA41A63EB0E03C0E9DC
:102CF80004431FE061184CEBE473C0E90467C5E9BD
:102D08000013FFF73FFF88F31188BFF36F8F8368C5
:102D180098474FF01003EFF3118883F31288BFF33D
:102D28006F8FD9F80030DAF800001B1B5045C9F83E
:102D38000030CCD1D9F800100024D5E90032C9F808
:102D480000405B1842EBE172C5E90032FFF7FCFE78
:102D58002146FFF74BF988F31188BFF36F8FBDE861
:102D6800F84FFFF7C9BC00BF380000241C0400243A
:102D78009802002410B54FF01003EFF3118483F389
:102D88001288BFF36F8FFFF7D5FE064B0146D3E9D4
:102D98000003081843EBE17184F31188BFF36F8FC8
:102DA80010BD00BF98020024014800F006B800BF1B
:102DB800D14100087047002070470FB407B504A937
:102DC80051F8040B0191FDF745FC03B05DF804EBE5
:102DD80004B070470446084611461A4608B5A0478D
:102DE800FFF71CFEFEF712FB2DE9F84F9A46D37841
:102DF80080460F466F2B1546A3F1410B29D024D8E6
:102E0800582B14BF0A261026DDF8289032460023D6
:102E180040463946FDF73CFA092AD4B21ED8303468
:102E2800B045E4B277F1000309F8014D01D3D1456B
:102E380011D82B789B0605D5082E15D1AB7843F011
:102E48000803AB704846BDE8F88F03F0F703702B12
:102E5800D7E70826D8E780460F46D7E7BBF1190F12
:102E680094BF37345734DBE7102EEBD1AB7843F0FF
:102E78001003E6E72DE9F0410746884615461E4649
:102E88001446B442A4EB050002D33EB923782BB113
:102E9800414614F8010BB8470028F2DABDE8F08182
:102EA80070470020704700F024BB0146006800F01E
:102EB80020BB00210120FFF7F6BF08B5FEF756F842
:102EC800BDE80840FEF724B9034600201A5C02B9A1
:102ED80070470130FAE7431E0A4410B5914200D109
:102EE80010BD11F8014B03F8014FF7E7C9B20244CE
:102EF8000346934200D1704703F8011BF9E74FF0EE
:102F0800FF307047034600201A5C0AB1884200D19E
:102F180070470130F8E708B5062201210020FEF7C6
:102F28007FFB002206201146FEF70AF8012107223E
:102F38000846FEF775FB002207201146FEF700F849
:102F4800082201210220FEF76BFB0022082011460F
:102F5800FDF7F6FF092201210320FEF761FB00229D
:102F680009201146FDF7ECFF0A2201210420FEF793
:102F780057FB00220A201146FDF7E2FF0521172220
:102F88000846FEF74DFB002217201146FDF7D8FF33
:102F9800282206210A20FEF743FB0022282011469A
:102FA800FDF7CEFF002008BD1F280ADC4FF0B04116
:102FB8000122D1F8803002FA00F023EA0000C1F8BB
:102FC80080007047032910D8DFE801F002101926A5
:102FD8004FF0B0430122196802FA00F021EA00011B
:102FE80019605A6822EA000058607047012303FA02
:102FF80000F04FF0B0431A6802431A60F1E701236A
:1030080003FA00F04FF0B0435A6802435A601A6856
:1030180022EA000018607047012303FA00F04FF01D
:10302800B0431A6802431A605A681043DCE70B6819
:10303800A3F1D402202A09D803F1B043496800203B
:1030480003F511331A680A431A6070476FF0850058
:1030580070470B68A3F1D402202A0AD803F1B043C1
:103068004968002003F511331A6822EA01021A6040
:1030780070476FF085007047436800205B681B69E4
:103088000B60704743685B68586942400A40424099
:1030980000205A617047436800205B689961704757
:1030A8004368090400205B68996170474368002001
:1030B8005A6853694B405361704730B50369986843
:1030C80010B3002481421BD108685CB9DC689860A1
:1030D800A14200D1D860002008604AB9002030BD64
:1030E8002846EFE72060D868814208BFDC60F2E735
:1030F8009A680A60D86899600028EFD1D960EEE72D
:1031080005680446002DEBD1002AF1D16FF01500B7
:10311800E5E72DE9F04144680120C2F38016C2F3C7
:10312800C11C676888408E4002F0300527EA000716
:10313800C2F34122202D46EA070600FA01F766602D
:1031480007EB470ED4F8088007FB0CFC07FB02F2DC
:103158006FEA0E0628EA0E084CEA080CC4F808C004
:10316800D4F80CC02CEA0E0C42EA0C02E2600DD135
:10317800072913DC07FA01F2206A02FA01F1C1EB10
:103188000112594320EA02021143216223682D09E2
:103198001E407D4335432560BDE8F081020A616A1F
:1031A80052435243C2EB0210534321EA00010B433E
:1031B8006362EBE738B5044690030D46134619D50C
:1031C800910710D55A0731D55022D8060DD542F4AB
:1031D800007219031FD4580316D501212046A940AF
:1031E800FFF75EFF10E01022EFE79906F1D542F4F1
:1031F8008062EEE7D00314D5D10614D412F0200F64
:1032080014BF4FF480620022606800232946FFF74C
:1032180080FF002038BD616801234968AB408B619D
:10322800F2E73022F0E74FF40072EDE76FF0850027
:10323800F0E70B4670B5896869B101255E680C68CE
:1032480085408A682A4002D04B683046984714B1B6
:1032580021462468F5E770BDF8B51F460446406866
:103268000E461546FFF755FF112F07D101212B05F3
:1032780001FA06F104D563685B6899610020F8BD1E
:103288002046FFF70DFFF9E730B5036813600579AD
:103298000468136804EBC504A34202D36FF001006D
:1032A80030BD5C798C4201D00833EFE70020F7E7A6
:1032B8004368C1F34B1001F01F011B68C05801237C
:1032C80003FA01F101424FF0000008BF0023137018
:1032D800704710B54368C1F34B1001F01F011A681D
:1032E8000123845803FA01F121438150002010BDC5
:1032F80010B54368C1F34B14012201F01F0118688F
:1033080002FA01F1235823EA01012150002010BDDF
:1033180038B504460D46FFF7DCFF29462046FFF77F
:10332800E7FF002038BD42681368D869D969C0F33F
:10333800C000C907D96948BF40F002008907D969A8
:1033480048BF40F004004907D96948BF40F0200051
:10335800C90504D54FF4807140F008001962C1070F
:1033680002D5136808211962830702D51368012161
:103378001962410702D5136802211962830602D532
:10338800136804221A62704737B503690C4645680A
:10339800586869688368DB688BB101AA9847002878
:1033A8000DDB2A68136823F4004313603CB1019BCA
:1033B8002A6803EB5403B3FBF4F39BB2D36003B066
:1033C80030BD10B540680268D3691B06FCD54FF0C4
:1033D8001002EFF3118382F31288BFF36F8F026834
:1033E800D469240604D483F31188BFF36F8FEAE706
:1033F800916283F31188BFF36F8F10BD43681A6819
:10340800D069000701D5082010621B68DA699206A6
:1034180003D55B6A00200B7070474FF0FF30704790
:1034280003691B680B6043681B681B6803F4C0636F
:10343800B3F5806F35D0A3F5C06CDCF1000343EB26
:103448000C030B7143681B685B6803F44053B3F5C6
:10345800805F28D0B3F5405F27D0002B14BF03232B
:1034680001234B7143681B681A681B6802F010221D
:1034780003F4C063B2F5805F19D0B2F1805F1BD14D
:10348800002B0CBF022301238B71436800201B68AB
:103498009B6803F44073A3F5407253425341CB71C8
:1034A80070470223CDE70023DBE70223D9E7002B8F
:1034B80014BF03230423E7E7002B14BF02230323CD
:1034C800E2E7704740B1C368587810F001001EBFAA
:1034D8001878B0FA80F0400970474FF01002EFF307
:1034E800118382F31288BFF36F8FFEE708B5FFF7E9
:1034F800F4FFF8B505460E464FF01003EFF31187B9
:1035080083F31288BFF36F8FFFF788FA31460446BA
:103518002846FFF7EBFF87F31188BFF36F8F20462C
:10352800BDE8F840FDF772BFFFF7E0BCFFF7D3BC7A
:103538006FF05700704708B54FF01002EFF3118392
:1035480082F31288BFF36F8FFDF7DCFCF4E7D0E954
:10355800003213605A600023C0E90033704708B591
:10356800FFF7F5FF437B23F00203437300238360D7
:1035780008BD034620B9EFF305820AB9FDF71EBD61
:1035880083F31188BFF36F8F70474FF01003EFF389
:10359800118083F31288BFF36F8FFFF7EABF0346EA
:1035A8000068834208BF0020704710B54FF0100331
:1035B800EFF3118483F31288BFF36F8FFFF7CCF812
:1035C80084F31188BFF36F8F10BD38B504464FF0F0
:1035D8001003EFF3118583F31288BFF36F8F437BDA
:1035E80013F0280F0BD183680BB1FFF7B8FF637B8B
:1035F80051B923F0040320466373FFF7ADF885F350
:103608001188BFF36F8F38BD23F01403F3E701214E
:103618001838FFF7DABF10B54FF01002EFF3118436
:1036280082F31288BFF36F8F03683BB1FFF7AAFAE2
:10363800002084F31188BFF36F8F10BD6FF0150061
:0C364800F7E708B5FFF796FB08BD00008F
:0836540074CCFF7F01000000AF
:10365C00050E000800000000AB2E00080000000062
:10366C0015180008F43600081F2F00080C37000846
:10367C003D1A0008243700083D1A00083C370008A2
:10368C003D1A0008543700083D1A00086C37000832
:10369C003D1A0008843700083D1A00089C370008C2
:1036AC003D1A0008B43700083D1A0008CC37000852
:1036BC003D1A0008E43700083D1A0008FC370008E2
:1036CC003D1A000814380008000000002C380008CF
:1036DC00051C000844380008ED1900080000000023
:0836EC007D1F00080000000032
:1036F400F6400008000000000800002462000024D6
:1037040000000000AA3D0008CA40000800000000B4
:103714000000000060000024AC020024A43D000866
:10372400034100080C3F0008203F00086400002407
:10373400CC0300249C3D000811410008F83E000819
:10374400203F000866000024BC030024943D0008C8
:103754001F410008E43E0008203F000868000024E0
:10376400AC0300248C3D00082D410008D03E000825
:10377400203F00086A0000249C030024843D0008C4
:103784003B410008BC3E0008203F00086C000024B8
:103794008C0300247C3D000849410008A83E000831
:1037A400203F00086E0000247C030024743D0008C0
:1037B40057410008943E0008203F00087000002490
:1037C4006C0300246C3D000865410008803E00083D
:1037D400203F0008720000245C030024643D0008BC
:1037E400734100086C3E0008203F00087400002468
:1037F4004C0300245C3D000881410008583E000849
:10380400203F0008760000243C030024543D0008B7
:103814008F410008443E0008203F0008780000243F
:103824002C0300244C3D00089D410008703F000813
:10383400743F00087A00002400000000423D0008A4
:10384400AE410008AC3F0008CC3F00087C000024D7
:0838540024000024383D0008A7
:10385C0000000000BB2E000800000000BB2E00087A
:10386C0000000000BB2E000800000000BB2E00086A
:10387C0000000000BB2E000800000000BB2E00085A
:10388C00E8400008D9150008EA400008D9150008DE
:10389C00EC400008D9150008EE400008D9150008C6
:1038AC00F0400008D915000800000000BB2E0008ED
:1038BC0000000000BB2E000800000000BB2E00081A
:1038CC0000000000BB2E000800000000BB2E00080A
:1038DC0000000000BB2E000800000000BB2E0008FA
:1038EC0000000000BB2E000800000000BB2E0008EA
:1038FC0000000000BB2E000800000000BB2E0008DA
:10390C0000000000BB2E0008F2400008D91500088A
:10391C0000000000BB2E000800000000BB2E0008B9
:10392C0000000000BB2E000800000000BB2E0008A9
:10393C0000000000BB2E000800000000BB2E000899
:10394C0000000000BB2E000800000000BB2E000889
:10395C0000000000BB2E000800000000BB2E000879
:10396C0000000000BB2E000800000000BB2E000869
:10397C0000000000BB2E000800000000BB2E000859
:10398C0000000000BB2E000800000000BB2E000849
:10399C00F4400008D915000800000000BB2E0008F8
:1039AC0000000000BB2E000800000000BB2E000829
:1039BC0000000000BB2E000800000000BB2E000819
:1039CC0000000000BB2E000800000000BB2E000809
:1039DC0000000000BB2E000800000000BB2E0008F9
:1039EC0000000000BB2E000800000000BB2E0008E9
:1039FC0000000000BB2E000800000000BB2E0008D9
:103A0C0000000000BB2E000800000000BB2E0008C8
:103A1C0000000000BB2E000800000000BB2E0008B8
:103A2C0000000000BB2E000800000000BB2E0008A8
:103A3C0000000000BB2E000800000000BB2E000898
:103A4C0000000000BB2E000800000000BB2E000888
:103A5C0000000000BB2E000800000000BB2E000878
:103A6C0000000000BB2E000800000000BB2E000868
:103A7C0000000000BB2E000800000000BB2E000858
:103A8C0000000000BB2E000800000000BB2E000848
:103A9C0000000000BB2E000800000000BB2E000838
:103AAC0000000000BB2E000800000000BB2E000828
:103ABC0000000000BB2E000800000000BB2E000818
:103ACC0000000000BB2E000800000000BB2E000808
:103ADC0000000000BB2E000800000000BB2E0008F8
:103AEC0000000000BB2E000800000000BB2E0008E8
:103AFC0000000000BB2E000800000000BB2E0008D8
:103B0C0000000000BB2E000800000000BB2E0008C7
:103B1C0000000000BB2E000800000000BB2E0008B7
:103B2C0000000000BB2E000800000000BB2E0008A7
:103B3C0000000000BB2E000800000000BB2E000897
:103B4C0000000000BB2E000800000000BB2E000887
:103B5C0000000000BB2E000800000000BB2E000877
:103B6C0000000000BB2E000800000000BB2E000867
:103B7C0000000000BB2E000800000000BB2E000857
:103B8C0000000000BB2E000800000000BB2E000847
:103B9C0000000000BB2E000800000000BB2E000837
:103BAC0000000000BB2E000800000000BB2E000827
:103BBC0000000000BB2E000800000000BB2E000817
:103BCC0000000000BB2E000800000000BB2E000807
:103BDC0000000000BB2E000800000000BB2E0008F7
:103BEC0000000000BB2E000800000000BB2E0008E7
:103BFC0000000000BB2E000800000000BB2E0008D7
:103C0C0000000000BB2E000800000000BB2E0008C6
:103C1C0000000000BB2E000800000000BB2E0008B6
:103C2C0000000000BB2E000800000000BB2E0008A6
:103C3C0000000000BB2E000800000000BB2E000896
:103C4C0000000000BB2E000800000000BB2E000886
:103C5C0000000000BB2E000800000000BB2E000876
:103C6C0000000000BB2E000800000000BB2E000866
:103C7C0000000000BB2E000800000000BB2E000856
:103C8C0000000000BB2E000800000000BB2E000846
:103C9C0000000000BB2E000800000000BB2E000836
:103CAC0000000000BB2E000800000000BB2E000826
:103CBC0000000000BB2E000800000000BB2E000816
:103CCC0000000000BB2E000800000000BB2E000806
:103CDC0000000000BB2E000800000000BB2E0008F6
:103CEC0000000000BB2E000800000000BB2E0008E6
:103CFC0000000000BB2E000800000000BB2E0008D6
:103D0C00800000248008002400040000C90500087D
:103D1C000000000000000000000000000700000090
:0C3D2C0000000000D007000079400008F3
:103D380001000E0000800080FF7F010000800080ED
:103D48000F00FF7F010000800080FF7F01000080DE
:103D58000080FF7F010000800080FF7F010000805D
:103D68000080FF7F010000800080FF7F010000804D
:103D78000080FF7F010000800080FF7F010000803D
:103D88000080FF7F010000800080FF7F010000802D
:103D98000080FF7F010000800080FF7F008000809E
:103DA800FF7F008000800300040005000600070074
:103DB800080009000A000B000C000D000E000F009F
:023DC800FF7F7B
:023DCA00FFFFF9
:103DCC008240000800000000C6400008000000000F
:103DDC00CE41000800000000BE41000800000000B9
:103DEC00F40000000200000005000000FC3D00088B
:103DFC000000000899400008280002070000002479
:103E0C009F40000824000B1100000430A44000085F
:103E1C001A00081100000430B24000080E00040122
:103E2C0000000090C140000836000400000000248F
:103E3C000000000000000B06FFFF0000000002580D
:103E4C0000000000E000000001000000FFFF000087
:103E5C000004025801000000E00000000200000015
:103E6C00FFFF00000008025802000000E000000004
:103E7C0004000000FFFF0000000C025803000000CB
:103E8C00E000000008000000FFFF000000100258D6
:103E9C0004000000E000000010000000FFFF000024
:103EAC000014025805000000E00000002000000093
:103EBC00FFFF00000018025806000000E0000000A0
:103ECC0040000000FFFF0000001C0258070000002B
:103EDC00E000000080000000FFFF000000200258FE
:103EEC0008000000E000000000010000FFFF0000DF
:103EFC000024025809000000E0000000000200004D
:103F0C00FFFF0000002802580A000000E00000003B
:103F1C0000040000BD310008813000088D3000081D
:103F2C009F300008A9300008B53000086D1A000851
:103F3C00C33000080000000014380008FC370008EB
:103F4C00E4370008CC370008B43700089C37000869
:103F5C00843700086C370008543700083C370008D9
:103F6C002437000800440258B9320008DB3200083C
:103F7C00F9320008193300089C3F000801000000CA
:103F8C0007070000000200002707000000000000E7
:103F9C008C3F000802000000E80000000000040054
:103FAC0000480040A43F0008010000000000000091
:103FBC00000000000000000000000000843F00082A
:103FCC0005340008CB3300082F330008C11D00084E
:103FDC0029340008F5FFFFFF5C3600085C3600084A
:103FEC00EC360008F4360008F4360008F436000805
:103FFC0000100000003068656C6C6F5F776F726C3E
:10400C0064207461736B2069732072756E6E696EB7
:10401C00670A0068656C6C6F20776F726C64212086
:10402C0025640A007461736B322069732072756E9B
:10403C006E696E670A00486561727420626561740E
:10404C00210A006E75636C656F5F683735337A696A
:10405C000048656C6C6F20576F726C64212025735F
:10406C000A00736F66745F74696D657200746173B6
:10407C006B325F69640063627072696E74665F7044
:10408C0061636B61676500286E696C2900464C4161
:10409C005348005352414D005352414D335F4554E8
:1040AC00485F425546005352414D335F4554485F7B
:1040BC00444553430051535049006D707500696E6F
:1040CC00746572727570742D636F6E74726F6C6C34
:1040DC00657240353830303030303000000101012D
:1040EC0002010301040105050A06726363403538B9
:1040FC00303234343030006770696F4035383032CC
:10410C0032383030006770696F40353830323234B5
:10411C003030006770696F403538303232303030B3
:10412C00006770696F40353830323143303000678A
:10413C0070696F4035383032313830300067706913
:10414C006F403538303231343030006770696F4031
:10415C003538303231303030006770696F40353867
:10416C00303230433030006770696F403538303250
:10417C0030383030006770696F4035383032303449
:10418C003030006770696F40353830323030303045
:10419C000072657365742D636F6E74726F6C6C65F1
:1041AC00720073657269616C403430303034383071
:1041BC003000756172745F73746D3332006D6169B8
:1041CC006E006F73002A2A2A20426F6F74696E6723
:1041DC00205A6570687972204F53206275696C643F
:1041EC00207A65706879722D76332E342E30202A21
:0441FC002A2A0A0061
:10420000BF2D0008072F0008373000085B3000087A
:10421000000000005517000800000000000000002A
:10422000CD16000800C20100000000002C38000874
:10423000121200000090D00338000024380000243F
:10424000FF00FF00FF00FF00FF00FF00FF00FF0076
:10425000FF00FF00FF00FF00FF00FF00FF00FF0066
:10426000000000000000000000000000000000004E
:0E427000000000000000000000000000000040
:04427E0015E015E052
:04000005080013E9F3
:00000001FF
